:100000000C946B000C94CD020C94FA020C949300A7
:100010000C9493000C9493000C9493000C94710234
:100020000C9493000C9493000C9493000C943E0851
:100030000C9493000C9493000C9493000C949300F4
:100040000C9403010C9493000C9443040C948104CD
:100050000C9493000C9493000C9493000C949300D4
:100060000C94FD050C9493000000000700020100B1
:100070000003040600000000000000000102040864
:100080001020408001020408102001020408102002
:10009000040404040404040402020202020203032E
:1000A00003030303000000002300260029000000D2
:1000B0000000250028002B0000000000240027007D
:1000C0002A000200B1045405F507F90707081208D1
:1000D0001D082808330811241FBECFEFD8E0DEBF6B
:1000E000CDBF15E0A0E0B1E0ECE4F2E102C0059084
:1000F0000D92A433B107D9F717E0A4E3B5E001C02E
:100100001D92AA38B107E1F710E0C6EDD0E004C0B7
:100110002297FE010E942009C43CD107C9F70E9422
:10012000F6000C9424090C940000DC01ED91FC9184
:100130000190F081E02D09948CE696E00E94C907B9
:1001400068E270E08CE696E00E94DD076CE370E008
:100150008CE696E00E94950061E070E08CE696E007
:100160000E9495008CE696E00C94F207CF9368E22B
:1001700070E08CE696E00E94DD0760E070E08CE6BF
:1001800096E00E949500CCE060E070E08CE696E09E
:100190000E949500C150C1F78CE696E00E94F207DC
:1001A00060ED77E080E090E00E94770168E270E027
:1001B0008CE696E00E94DD0760E070E08CE696E059
:1001C0000E949500CCE06FEF70E08CE696E00E9414
:1001D0009500C150C1F78CE696E00E94F20760EDF1
:1001E00077E080E090E0CF910C9477010E949F012E
:1001F0000E949C00C8E7D4E00E94B6002097E1F37B
:100200000E947804F9CF1F920F920FB60F9211241B
:100210002F933F938F939F93AF93BF938091340518
:1002200090913505A0913605B091370530913C0588
:10023000232F2D5F2D3720F40196A11DB11D05C080
:10024000232F2A570296A11DB11D20933C058093B0
:10025000340590933505A0933605B093370580910A
:10026000380590913905A0913A05B0913B0501966A
:10027000A11DB11D8093380590933905A0933A05CF
:10028000B0933B05BF91AF919F918F913F912F917B
:100290000F900FBE0F901F9018950F931F939FB74D
:1002A000F894009138051091390520913A05309164
:1002B0003B0586B5A89B06C08F3F21F00F5F1F4FFF
:1002C0002F4F3F4F9FBF322F212F102F0027080F96
:1002D000111D211D311D42E0000F111F221F331F70
:1002E0004A95D1F7B801C9011F910F910895CF9296
:1002F000DF92EF92FF92CF93DF936B017C010E941C
:100300004D01EB0110C00E94DA010E944D016C1BEF
:100310007D0B683E734038F081E0C81AD108E108CF
:10032000F108C851DC4FC114D104E104F10459F7BC
:10033000DF91CF91FF90EF90DF90CF900895789468
:1003400084B5826084BD84B5816084BD85B58260DA
:1003500085BD85B5816085BDEEE6F0E08081816078
:100360008083E1E8F0E01082808182608083808178
:1003700081608083E0E8F0E0808181608083E1EB50
:10038000F0E0808184608083E0EBF0E08081816038
:100390008083EAE7F0E080818460808380818260EE
:1003A00080838081816080838081806880831092D7
:1003B000C10008950895833069F028F48130A1F0D8
:1003C000823011F514C08630B1F08730C1F084302E
:1003D000D9F404C0809180008F7703C080918000A1
:1003E0008F7D80938000089584B58F7702C084B597
:1003F0008F7D84BD08958091B0008F7703C0809178
:10040000B0008F7D8093B00008950F931F93CF931A
:10041000DF931F92CDB7DEB7282F30E0F901E859FE
:10042000FF4F8491F901E458FF4F1491F901E0570F
:10043000FF4F04910023D1F0882321F069830E94AB
:10044000DB016981E02FF0E0EE0FFF1FE255FF4F67
:1004500085919491DC019FB7F8948C91611103C050
:100460001095812301C0812B8C939FBF0F90DF914A
:10047000CF911F910F910895813039F018F082309B
:10048000D1F409C010926E00089580916F008D7FA5
:1004900080936F000895809170008D7F809370002D
:1004A00081E08093B0008091B100887F8460809368
:1004B000B1001092B3000895CF93C82F809101012D
:1004C0008C1307C0E2ECF0E084919FEF9093010160
:1004D00001C08FEF0E943C0260E08C2FCF910C9402
:1004E00005021F920F920FB60F9211242F933F9384
:1004F0004F935F936F937F938F939F93AF93BF932C
:10050000EF93FF938091400590914105A0914205A2
:10051000B0914305892B8A2B8B2B51F190913D058E
:10052000E0913E05F0913F0580818927808380918D
:10053000400590914105A0914205B09143051816E0
:1005400019061A061B06C4F48091400590914105D6
:10055000A0914205B09143050197A109B10980938B
:10056000400590934105A0934205B093430504C014
:10057000809101010E945C02FF91EF91BF91AF91C8
:100580009F918F917F916F915F914F913F912F91AB
:100590000F900FBE0F901F9018951F920F920FB6DD
:1005A0000F9211242F933F934F935F936F937F93F9
:1005B0008F939F93AF93BF93EF93FF9380915205D7
:1005C00090915305892B29F0E0915205F091530544
:1005D0000995FF91EF91BF91AF919F918F917F917D
:1005E0006F915F914F913F912F910F900FBE0F90A0
:1005F0001F9018951F920F920FB60F9211242F93F0
:100600003F934F935F936F937F938F939F93AF939A
:10061000BF93EF93FF938091540590915505892BDB
:1006200029F0E0915405F09155050995FF91EF915E
:10063000BF91AF919F918F917F916F915F914F91FA
:100640003F912F910F900FBE0F901F901895CF9252
:10065000DF92EF92FF920F931F93CF93DF936C0182
:10066000EB017A01E60EF71E00E010E00BC0699185
:10067000D601ED91FC910190F081E02DC601099524
:10068000080F191FCE15DF0591F7C801DF91CF9133
:100690001F910F91FF90EF90DF90CF90089561151B
:1006A000710581F0DB010D900020E9F7AD014150AB
:1006B0005109461B570BDC01ED91FC910280F3813F
:1006C000E02D099480E090E00895DC01ED91FC912B
:1006D0000190F081E02D09944F925F926F927F928A
:1006E0009F92AF92BF92CF92DF92EF92FF920F93C1
:1006F0001F93CF93DF93CDB7DEB7A1970FB6F894D2
:10070000DEBF0FBECDBF5C016A017B01922E19A234
:1007100081E0821710F08AE0982E8E010F5D1F4F46
:10072000492C512C612C712CC701B601A3019201F7
:100730000E94FC088C2D929E8019112401501109F1
:100740008A3014F4805D01C0895CF80180836901FE
:100750007A01C114D104E104F10431F7B801C501F3
:100760000E944F03A1960FB6F894DEBF0FBECDBF17
:10077000DF91CF911F910F91FF90EF90DF90CF907D
:10078000BF90AF909F907F906F905F904F90089533
:100790002115310541F4DC01ED91FC910190F081CE
:1007A000E02D642F09940C946C039A01462F50E0BD
:1007B00060E070E00C94C803FC01268D878D30E06A
:1007C000205C3F4F281B31092F733327C90108953F
:1007D000FC01968D878D981731F0878DE80FF11DFC
:1007E00022A130E002C02FEF3FEFC9010895FC01C4
:1007F000968D878D981761F0878DDF01A80FB11D49
:1008000092962C91878D8F5F8F73878F30E002C017
:100810002FEF3FEFC9010895FC01858D882329F052
:10082000A089B1898C9186FFFBCF158E0895FC01BC
:1008300080A190E001968F73992721A130E0821763
:100840009307D9F390A1DF01A90FB11DAE59BF4F96
:100850006C9380A3A289B3892C9181E090E0038CF2
:1008600002C0880F991F0A94E2F7282B2C9381E08D
:10087000858F0088F189E02D80818064808381E00C
:1008800090E0089508951F920F920FB60F921124D1
:100890002F933F934F938F939F93EF93FF93809169
:1008A000C00082FD17C04091C6008091740590E0A1
:1008B00001968F7399272091750530E08217930771
:1008C00059F0E0917405F0E0EA5AFA4F42A38093A0
:1008D000740502C08091C600FF91EF919F918F91A6
:1008E0004F913F912F910F900FBE0F901F90189531
:1008F00086E595E00E94DC03892B11F00C944204FC
:1009000008951F920F920FB60F9211242F938F9379
:100910009F93EF93FF9390917605809177059813BD
:1009200006C08091C1008F7D8093C10010C0E0910E
:100930007705F0E0E854FA4F20818091770590E048
:1009400001968F739927809377052093C600FF91B6
:10095000EF919F918F912F910F900FBE0F901F904D
:100960001895109259051092580588EE93E0A0E072
:10097000B0E080935A0590935B05A0935C05B0931B
:100980005D0582E195E0909357058093560510929E
:10099000770510927605109275051092740585EC16
:1009A00090E0909363058093620584EC90E09093CF
:1009B00065058093640580EC90E0909367058093D3
:1009C000660581EC90E0909369058093680582EC60
:1009D00090E090936B0580936A0586EC90E090938D
:1009E0006D0580936C0584E080936E0583E08093B1
:1009F0006F0587E08093700585E08093710581E045
:100A0000809372050895AF92BF92CF92DF92EF92DA
:100A1000FF920F931F93CF93DF936C017B01C0E094
:100A2000D0E000E010E0F601EC0FFD1F4AE050E0DE
:100A30006281C7010E94D5035C016EE2C7010E947A
:100A400065038A0D9B1D080F191F2196C330D10520
:100A500051F74AE050E0F6016581C7010E94D503D5
:100A6000080F191FC801DF91CF911F910F91FF90BF
:100A7000EF90DF90CF90BF90AF90089522E235E0E5
:100A8000FC0131832083128213821482158208951F
:100A90000F93FC0182E295E091838083628343831C
:100AA000248305830F91089582E295E09093F905E0
:100AB0008093F8051092FA051092FB051092FC0540
:100AC0001092FD0508951092070681E080930506B7
:100AD0001092040661E082E10E94050261E083E178
:100AE0000E940502E9EBF0E080818E7F80838081A7
:100AF0008D7F808388E48093B80085E48093BC0078
:100B000008950F93413208F046C090910706911165
:100B1000FCCF92E090930706009305069FEF909319
:100B2000FE051092030640930206FB0168E076E0A2
:100B3000DB0102C091919D939A2F961B9417D0F3DD
:100B40001092060690910606880F892B8093060660
:100B500080910406813041F41092040680910606CB
:100B60008093BB0085EC01C085EE8093BC002223FE
:100B700021F0809107068230E1F38091FE058F3FDE
:100B800061F08091FE05803251F08091FE05803346
:100B900041F483E007C081E005C080E003C082E04B
:100BA00001C084E00F910895613298F42091070606
:100BB000243089F460930006FC0188E296E0DC01B1
:100BC00002C021912D932A2F281B2617D0F380E0F5
:100BD000089581E0089582E0089585ED8093BC003A
:100BE0008091BC0084FDFCCF10920706089585EC2F
:100BF0008093BC001092070608951F920F920FB6C3
:100C00000F9211242F933F934F935F936F937F9392
:100C10008F939F93AF93BF93EF93FF938091B9000E
:100C2000887F803609F49FC058F5883209F45BC08C
:100C300090F4803109F452C038F4882309F4F8C0E4
:100C4000883009F0F9C04AC0883109F44CC08032BC
:100C500009F0F2C05CC0803409F46BC038F4803312
:100C600009F455C0883309F0E7C054C0803509F451
:100C700054C0883509F462C0883409F0DDC0DAC098
:100C8000883909F4CBC0A8F4883709F46CC038F46B
:100C9000883609F468C0803709F0CEC064C088384F
:100CA00009F4BCC0803909F464C0803809F0C4C0BC
:100CB00060C0803B09F48AC038F4803A09F46BC004
:100CC000883A09F0B9C082C0803C09F4ABC0883CC6
:100CD00009F4A8C0883B09F0AFC08DC0809106061A
:100CE0008093BB0012C09091030680910206981772
:100CF00088F580910306E82FF0E0E85FF94F9081D6
:100D00009093BB008F5F8093030685EC88C080932F
:100D1000FE0590C08093FE0556C080910306909119
:100D2000BB00E82FF0E0E85FF94F90838F5F80937E
:100D3000030690910306809102066DC08091030620
:100D40009091BB00E82FF0E0E85FF94F90838F5F50
:100D5000809303068091050681116CC081E0809329
:100D6000040684EA60C083E0809307061092FF05C2
:100D7000CCCF8091FF05803208F050C08091FF05F4
:100D80009091BB00E82FF0E0E45BF94F90838F5F18
:100D90008093FF05BACF8091FF05803230F4E09157
:100DA000FF05F0E0E45BF94F10820E94ED056091D1
:100DB000FF05E0914806F091490670E08CE496E06A
:100DC00009951092FF050E94F70536C084E08093D4
:100DD00007061092010610920006E0914A06F09173
:100DE0004B06099580910006811105C081E0809332
:100DF00000061092280680910106E82FF0E0E85DD9
:100E0000F94F90819093BB008F5F80930106909182
:100E1000010680910006981708F477CF85E8809343
:100E2000BC000AC085EC8093BC001092070604C089
:100E30001092FE050E94ED05FF91EF91BF91AF91D9
:100E40009F918F917F916F915F914F913F912F91E2
:100E50000F900FBE0F901F9018952091A00630E0C4
:100E60008091A106281B3109C90108958091A1062E
:100E70009091A006891750F4E82FF0E0EE55F94F55
:100E8000208130E08F5F8093A10602C02FEF3FEFFB
:100E9000C9010895E091A1068091A006E81730F4F9
:100EA000F0E0EE55F94F208130E002C02FEF3FEF28
:100EB000C90108950895CF92DF92EF92FF920F93A8
:100EC0001F93CF93DF937C01CB018A0120917C0695
:100ED000222391F0EB016B01C40ED51E09C069916C
:100EE000D701ED91FC910190F081E02DC7010995AA
:100EF000CC15DD05A1F703C0642F0E94D405C801FD
:100F0000DF91CF911F910F91FF90EF90DF90CF90E5
:100F10000895CF93DF931F92CDB7DEB769832091F9
:100F20007C062223D1F020917D06203240F021E082
:100F300030E0FC013383228320E030E015C0809153
:100F40007E06E82FF0E0E158F94F998190838F5F9A
:100F500080937E0680937D0605C061E0CE010196F8
:100F60000E94D40521E030E0C9010F90DF91CF91BC
:100F70000895FC011382128248EE53E060E070E0B5
:100F8000448355836683778388E295E091838083E9
:100F900008951092A1061092A00610927E0610925B
:100FA0007D060C94630581E080937C0660939F0628
:100FB00010927E0610927D0608950C94D3070F932D
:100FC000062F21E040917D066FE776E080919F0635
:100FD0000E94810510927E0610927D0610927C067A
:100FE0000F91089561E00C94DF078CE696E00C9475
:100FF000B9070F9300E020E040E060E080E497E074
:101000000E94480582EC96E00F910C943E050F93E8
:1010100000E020E040E060E086E497E00E944805C0
:101020000F9108950F9300E020E040E060E08CE431
:1010300097E00E9448050F9108950F9300E020E08B
:1010400040E060E082E597E00E9448050F91089536
:101050000F9300E020E040E060E088E597E00E9428
:1010600048050F9108950F9300E020E040E060E014
:101070008EE597E00E9448050F9108951F920F9208
:101080000FB60F9211242F933F934F935F936F935B
:101090007F938F939F93AF93BF93EF93FF93809131
:1010A000650787FF05C010928500109284001AC062
:1010B00020916507332727FD30958091640790E0E4
:1010C000281739077CF480916507992787FD90954B
:1010D000FC01EE0FFF1FE80FF91FEA59F84F80815E
:1010E00086FD37C0809165078F5F809365072091EB
:1010F0006507332727FD30958091640790E0281716
:101100003907CCF5809165078C30F4F134C08091BB
:101110006507992787FD9095FC01EE0FFF1FE80FEB
:10112000F91FEA59F84F808161E08F730E94050230
:1011300052C080E49CE905C08091840090918500B4
:10114000049690938900809388008FEF80936507C1
:1011500042C080916507992787FD9095FC01EE0FAD
:10116000FF1FE80FF91FEA59F84F808160E08F7385
:101170000E940502B7CF809184009091850004966B
:1011800080349C49B0F2D8CF209184003091850002
:1011900080916507992787FD9095FC01EE0FFF1F51
:1011A000E80FF91FEA59F84F81819281820F931F4E
:1011B000909389008093880080916507992787FD27
:1011C0009095FC01EE0FFF1FE80FF91FEA59F84F49
:1011D000808186FD9CCFFF91EF91BF91AF919F9150
:1011E0008F917F916F915F914F913F912F910F90D0
:1011F0000FBE0F901F901895A1E21A2EAA1BBB1BC1
:10120000FD010DC0AA1FBB1FEE1FFF1FA217B307D2
:10121000E407F50720F0A21BB30BE40BF50B661FE8
:10122000771F881F991F1A9469F7609570958095AC
:1012300090959B01AC01BD01CF010895EE0FFF1FFA
:0C1240000590F491E02D0994F894FFCF84
:10124C0001FF00040000000000000000000000008E
:10125C000000000000000000000000000000000082
:10126C000000000000000000000000000000000072
:10127C000000000000000000000000000000000062
:10128C0000000080808000000000000000000000D2
:10129C0000000000008080C0C000000000000000C2
:1012AC000000000000000000000000000000000032
:1012BC000000000000000000000000000000000022
:1012CC000000000000000000000000000000000012
:1012DC00000000000000000080C0E0F0F8FCF8E026
:1012EC0000000000000000000000000000000000F2
:1012FC0000808080808000808000000000808080E2
:10130C00808000FFFFFF00000000808080800000D4
:10131C008080000080FFFF808000808000808080C3
:10132C00800080800000000000808000008C8E8493
:10133C00000080F8F8F880000000000000000000B9
:10134C0000000000F0F0F0F0F0F0F0F0F0F0F0F051
:10135C00E0E0C08000E0FCFEFFFFFF7FFFFFFFFF2F
:10136C00FF0000000000000000000000000000FE74
:10137C00FFC70101010183FFFF00007CFEC70101D3
:10138C00010183FFFFFF0038FEC78301010183C702
:10139C00FFFF000001FFFF010100FFFF070101013A
:1013AC0000007FFF80000000FFFF7F0000FFFFFFB9
:1013BC00000001FFFFFF0100000000000000000022
:1013CC0000000000030F3F7F7FFFFFFFFFFFFFFFC9
:1013DC00E7C7C78F8F9FBFFFFFC3C0F0FFFFFFFFA3
:1013EC00FFFCFCFCFCFCFCFCFCF8F8F0F0E0C000A2
:1013FC0001030303030301030300000000010303C3
:10140C0003030101030100000001030303030101B5
:10141C0003030000000303000000030300000000AE
:10142C00000000010303030303010000000103019A
:10143C000000000303010000000000000000000099
:10144C000000000000000080C0E0F0F9FFFFFFFF8B
:10145C00FF3F1F0F87C7F7FFFF1F1F3DFCF8F8F872
:10146C00F87C7DFFFFFFFFFFFFFFFF7F3F0F0700B3
:10147C003030000000000000000000000000000000
:10148C000000000000000000FEFEFC000000000058
:10149C000000000000000000000000000000000040
:1014AC0000E0C00000000000000000000000303030
:1014BC000000000000000000000000000000000020
:1014CC000000000000C0FEFFFFFFFFFFFFFFFFFF5B
:1014DC007F7F3F1F0F071F7FFFFFF8F8FFFFFFFF06
:1014EC00FFFEF8E00000000100000000000000001A
:1014FC00FEFE000000FCFEFC0C06060EFCF80000D4
:10150C00F0F81C0E0606060CFFFFFF0000FEFE00A6
:10151C00000000FCFEFC00183C7E66E6CE84000059
:10152C0006FFFF0606FCFEFC0C0606060000FEFE8F
:10153C000000C0F8FC4E4646464E7C7840183C767F
:10154C00E6CECC800000000000000000000000008F
:10155C00000000000000000001070F1F1F3F3F3F6D
:10156C003F1F0F03000000000000000000000000FF
:10157C000F0F0000000F0F0F000000000F0F0000F6
:10158C0003070E0C18180C060F0F0F0000010F0E9E
:10159C000C180C0F070100040E0C180C0F070000A0
:1015AC00000F0F00000F0F0F0000000000000F0FC6
:1015BC0000000007070C0C181C0C060600040E0C8F
:1015CC00180C0F07000000000000000000000000D5
:1015DC0000000000000000000000000000000000FF
:1015EC0000000000000000000000000000000000EF
:1015FC0000000000000000000000000000000000DF
:10160C0000000000000000000000000000000000CE
:10161C0000000000000000000000000000000000BE
:10162C0000000000000000000000000000000000AE
:10163C00000000000000000000000000000000009E
:10164C000000000000008A072000010000000000DC
:10165C00000017042703DC03F703E8030C04000065
:10166C00000003050000000089075B072D07360703
:04167C004A075A07B8
:00000001FF
