:100000000C94F9020C94660C0C94930C0C94210340
:100010000C9421030C9421030C9421030C940A0CDE
:100020000C9421030C9421030C9421030C940814C8
:100030000C9421030C9421030C9421030C942103B0
:100040000C94640A0C9421030C948C0F0C94CA0F2A
:100050000C9421030C9421030C9421030C94210390
:100060000C94C7110C94210300C001C001C003E02F
:10007000F3E0FEF87EFF339F1FFC0D701BA03FE0F6
:100080003FF07CF0707000300000000700020100BB
:100090000003040600000000000000000102040844
:1000A00010204080010204081020010204081020E2
:1000B000040404040404040402020202020203030E
:1000C00003030303000000002300260029000000B2
:1000D0000000250028002B0000000000240027005D
:1000E0002A000200000000003E5B4F5B3E3E6B4F6B
:1000F0006B3E1C3E7C3E1C183C7E3C181C577D57BA
:100100001C1C5E7F5E1C00183C1800FFE7C3E7FF65
:100110000018241800FFE7DBE7FF30483A060E26F8
:1001200029792926407F050507407F05253F5A3C50
:10013000E73C5A7F3E1C1C08081C1C3E7F14227F93
:1001400022145F5F005F5F06097F017F006689956B
:100150006A606060606094A2FFA29408047E040854
:1001600010207E201008082A1C08081C2A08081ED7
:10017000101010100C1E0C1E0C30383E3830060EBD
:100180003E0E06000000000000005F0000000700B7
:100190000700147F147F14242A7F2A122313086473
:1001A0006236495620500008070300001C22410017
:1001B0000041221C002A1C7F1C2A08083E08080057
:1001C00080703000080808080800006060002010F7
:1001D0000804023E5149453E00427F4000724949B1
:1001E00049462141494D331814127F102745454592
:1001F000393C4A49493141211109073649494936B3
:10020000464949291E000014000000403400000047
:100210000814224114141414140041221408020179
:100220005909063E415D594E7C1211127C7F4949A5
:1002300049363E414141227F4141413E7F49494942
:10024000417F090909013E414151737F0808087F38
:1002500000417F41002040413F017F081422417F3F
:10026000404040407F021C027F7F0408107F3E41D7
:1002700041413E7F090909063E4151215E7F09192E
:100280002946264949493203017F01033F40404046
:100290003F1F2040201F3F4038403F631408146335
:1002A00003047804036159494D43007F41414102F1
:1002B00004081020004141417F0402010204404033
:1002C000404040000307080020545478407F2844F1
:1002D00044383844444428384444287F38545454DB
:1002E0001800087E090218A4A49C787F08040478EA
:1002F00000447D40002040403D007F102844000025
:10030000417F40007C047804787C080404783844F9
:10031000444438FC1824241818242418FC7C0804AD
:100320000408485454542404043F44243C404020CE
:100330007C1C2040201C3C4030403C442810284479
:100340004C9090907C4464544C440008364100002A
:1003500000770000004136080002010204023C263A
:1003600023263C1EA1A161123A4040207A38545401
:100370005559215555794121545478412155547886
:100380004020545579400C1E52721239555555591A
:10039000395454545939555454580000457C41003F
:1003A00002457D420001457C40F0292429F0F028D7
:1003B0002528F07C545545002054547C547C0A096F
:1003C0007F4932494949323248484832324A4848DE
:1003D000303A4141217A3A42402078009DA0A07DE8
:1003E00039444444393D4040403D3C24FF242448A6
:1003F0007E4943662B2FFC2F2BFF0929F620C0884E
:100400007E090320545479410000447D413048481E
:100410004A32384040227A007A0A0A727D0D193138
:100420007D2629292F28262929292630484D402094
:10043000380808080808080808382F10C8ACBA2F70
:10044000102834FA00007B000008142A1422221419
:100450002A1408AA005500AAAA55AA55AA00000005
:10046000FF00101010FF00141414FF001010FF0004
:10047000FF1010F010F0141414FC001414F700FF17
:100480000000FF00FF1414F404FC141417101F10D4
:10049000101F101F1414141F00101010F000000083
:1004A000001F101010101F10101010F0100000008E
:1004B000FF101010101010101010FF10000000FF9F
:1004C000140000FF00FF00001F10170000FC04F4E0
:1004D00014141710171414F404F40000FF00F71498
:1004E000141414141414F700F7141414171410101F
:1004F0001F101F141414F4141010F010F000001F3B
:10050000101F0000001F14000000FC140000F01079
:10051000F01010FF10FF141414FF141010101F001F
:10052000000000F010FFFFFFFFFFF0F0F0F0F0FF21
:10053000FFFF0000000000FFFF0F0F0F0F0F3844F8
:100540004438447C2A2A3E147E02020606027E02B9
:100550007E0263554941633844443C04407E201E7A
:100560002006027E020299A5E7A5991C2A492A1CA9
:100570004C7201724C304A4D4D303048784830BC96
:10058000625A463D3E494949007E0101017E2A2AC0
:100590002A2A2A44445F444440514A444040444A41
:1005A00051400000FF0103E080FF000008086B6B72
:1005B000083612362436060F090F060000181800F8
:1005C00000001010003040FF0101001F01011E005B
:1005D000191D1712003C3C3C3C0000000000480A7A
:1005E0007B101E11BF13C313D113DC13E713F213D7
:1005F000FD1311241FBECFEFD8E0DEBFCDBF15E045
:10060000A0E0B1E0E4E6FAE402C005900D92AE3954
:10061000B107D9F718E0AEE9B5E001C01D92A332E9
:10062000B107E1F715E0C2EFD5E004C02297FE0163
:100630000E94C624CE3DD107C9F70E94570A0C94E8
:1006400030250C940000CF93DF93CDB7DEB7A4978D
:100650000FB6F894DEBF0FBECDBF69A34AA36AE907
:1006600072E080E090E00E941F258E010F5F1F4F17
:100670000BA31CA3CE01809698A38F8F53E0852EE9
:10068000912C8C0E9D1E62E0A62EB12CAC0EBD1ED0
:1006900075E0472E512C612C712C0E941A256B019C
:1006A0007C018EE995E00E9414229C01442737FDCD
:1006B0004095542FC701B6010E948824F801608339
:1006C000F50110820E941A25A30192010E9488243C
:1006D000F62EF394F401F0826EE075E08FEE95E073
:1006E0000E94FF0C4AE050E0F80160818FEE95E037
:1006F0000E94AF0D62E175E08FEE95E00E94FF0C65
:100700004AE050E0F50160818FEE95E00E94AF0D68
:1007100067E175E08FEE95E00E94FF0C4AE050E043
:100720006F2D8FEE95E00E94B60D0D5F1F4FF3E029
:10073000AF0EB11C83E0880E911CEF8DF8A1AE16B0
:10074000BF0609F0AACFB12C45E0242E312C412C54
:10075000512C1FC08B2D90E0FC01EE0FFF1FE80F06
:10076000F91F81E090E08C0F9D1FE80FF91F418178
:100770006081CC24C394D12CEAA0F12C09A110E013
:1007800028E630E050E070E08EE995E00E943020ED
:10079000B39499E09B15F0F68EE995E00E94E0177E
:1007A00068EC70E080E090E00E94D80A83E0682E58
:1007B000712C6C0E7D1E8BA09CA092E0A92EB12CFA
:1007C000AC0EBD1EF5014081F4016081C12CD12C1D
:1007D000EAA0F12C09A110E028E630E050E070E03A
:1007E0008EE995E00E943020F3011081F5018081AF
:1007F000180F10838EE995E00E941822212F30E017
:1008000082179307F4F40E941A256B017C018EE98C
:1008100095E00E9414229C01442737FD4095542FF7
:10082000C701B6010E948824F4016083F50110829B
:100830000E941A25A20191010E9488246F5FF30192
:100840006083F3E0AF0EB11C83E0880E911C93E04F
:10085000690E711CEF8DF8A1AE16BF0609F0B2CF7C
:10086000B12C78CFCF93DF9361E08EE995E00E94C1
:10087000FF2161E070E08EE995E00E94052240E0F2
:1008800050E060E070E08EE995E00E94F921C0E060
:10089000D5E1CA3089F06C2F8EE995E00E94A52140
:1008A000CC2351F08C2F6D2F0E944624911104C04F
:1008B0008EE995E00E94080DCF5FC83A51F78EE9A6
:1008C00095E0DF91CF910C94E0170F931F93CF9396
:1008D000DF93C0E0D0E023C08EE995E00E941822AB
:1008E0008C018EE995E00E941422A80117FF02C036
:1008F0004F5F5F4F55954795BC0197FF02C06F5FF3
:100900007F4F7595679501E010E09E018EE995E0B7
:100910000E941F1A8EE995E00E94E01722968EE948
:1009200095E00E941822C817D907B4F2DF91CF9141
:100930001F910F910895BF92CF92DF92EF92FF9295
:100940000F931F93CF93DF93C12CD12CC0E0D0E045
:10095000BB24B39421C08EE995E00E9418228C013B
:100960000C0D1D1D8EE995E00E941422EE24E394E7
:10097000EB209C012C0D3D1DF12CAE01BE018EE93A
:1009800095E00E9499198EE995E00E94E017B394D2
:10099000239686E0C81AD1088EE995E00E941822B5
:1009A0009C0197FF02C02F5F3F4F35952795C217D7
:1009B000D3078CF2DF91CF911F910F91FF90EF90B1
:1009C000DF90CF90BF9008956F927F928F929F9209
:1009D000AF92BF92CF92DF92EF92FF920F931F934D
:1009E000CF93DF93C0E0D0E05EC08EE995E00E9437
:1009F00018226C0197FF03C08FEFC81AD80AD5944C
:100A0000C794CC0EDD1E8EE995E00E9414227C0175
:100A100097FF03C08FEFE81AF80AF594E794EC0EFD
:100A2000FD1E8EE995E00E9418228C0197FF02C0FE
:100A30000F5F1F4F159507950C0F1D1F8EE995E051
:100A40000E9414224C0197FF03C08FEF881A980A66
:100A5000959487948C1A9D0A8EE995E00E9418223D
:100A60003C0197FF03C08FEF681A780A759467946A
:100A70006C1A7D0A8EE995E00E941422BC0197FF52
:100A800002C06F5F7F4F75956795AA24A394B12C20
:100A90009401A3018EE995E00E94761E8EE995E00F
:100AA0000E94E01725968EE995E00E9414228C01A1
:100AB0008EE995E00E941822081719072CF48EE998
:100AC00095E00E94142204C08EE995E00E9418224D
:100AD0009C0197FF02C02F5F3F4F35952795C217A6
:100AE000D3070CF482CFDF91CF911F910F91FF902C
:100AF000EF90DF90CF90BF90AF909F908F907F90BE
:100B00006F9008956F927F928F929F92AF92BF9253
:100B1000CF92DF92EF92FF920F931F93CF93DF93C9
:100B20008EE995E00E941422EC018EE995E00E9486
:100B30001822C817D9072CF48EE995E00E941422D8
:100B400004C08EE995E00E941822EC0197FD2196E1
:100B5000D595C7955EC08EE995E00E9418226C017C
:100B600097FF03C08FEFC81AD80AD594C794CC0E4C
:100B7000DD1E8EE995E00E9414227C0197FF03C0E0
:100B80008FEFE81AF80AF594E794EC0EFD1E8EE953
:100B900095E00E9418228C0197FF02C00F5F1F4F43
:100BA000159507950C0F1D1F8EE995E00E941422E4
:100BB0004C0197FF03C08FEF881A980A9594879489
:100BC0008C1A9D0A8EE995E00E9418223C0197FF3D
:100BD00003C08FEF681A780A759467946C1A7D0ABF
:100BE0008EE995E00E941422BC0197FF02C06F5F5E
:100BF0007F4F75956795AA24A394B12C9401A30106
:100C00008EE995E00E94D11E8EE995E00E94E017E2
:100C100025971C161D060CF49ECFDF91CF911F91D6
:100C20000F91FF90EF90DF90CF90BF90AF909F908B
:100C30008F907F906F900895AF92BF92CF92DF9286
:100C4000EF92FF920F931F93CF93DF93A12CB12CC0
:100C5000C0E0D0E02EC08EE995E00E9418226C0121
:100C60008EE995E00E9418228C010A0D1B1D8EE969
:100C700095E00E9414227601D7FE03C023E0E20E25
:100C8000F11CF594E794F594E7949C012A0D3B1D23
:100C9000CC24C394D12CAE01BE018EE995E00E9414
:100CA000471D8EE995E00E94E017229684E0A81A7D
:100CB000B1088EE995E00E9418229C0197FF02C0BE
:100CC0002F5F3F4F3595279522503109C217D30723
:100CD00014F2DF91CF911F910F91FF90EF90DF9071
:100CE000CF90BF90AF9008958F929F92AF92BF9296
:100CF000CF92DF92EF92FF920F931F93CF93DF93E8
:100D0000A12CB12CC0E0D0E0992493948824839442
:100D10002EC08EE995E00E9418226C018EE995E0C4
:100D20000E9418228C010A0D1B1D8EE995E00E947D
:100D300014227601D7FE03C023E0E20EF11CF594E5
:100D4000E794F594E7949C012A0D3B1DC92CD12C06
:100D5000AE01BE018EE995E00E94041E98248EE942
:100D600095E00E94E017229684E0A81AB1088EE967
:100D700095E00E9418229C0197FF02C02F5F3F4F11
:100D80003595279522503109C217D30714F2DF9108
:100D9000CF911F910F91FF90EF90DF90CF90BF9078
:100DA000AF909F908F900895CF92DF92EF92FF9235
:100DB0000F931F93CF93DF93C12CD12CC0E0D0E0D1
:100DC0001FC08EE995E00E9418228C010C0D1D1D9C
:100DD0008EE995E00E9414229C012C0D3D1DEE240D
:100DE000E394F12CAE01BE018EE995E00E941D193D
:100DF0008EE995E00E94E017229684E0C81AD10897
:100E00008EE995E00E9418229C0197FF02C02F5F97
:100E10003F4F35952795C217D3079CF2DF91CF91AD
:100E20001F910F91FF90EF90DF90CF900895EF9278
:100E3000FF920F931F93CF93DF93C0E0D0E018C0D1
:100E40008EE995E00E9418228C0101501109EE24D0
:100E5000E394F12C9E0140E050E060E070E08EE908
:100E600095E00E9467188EE995E00E94E0172496AD
:100E70008EE995E00E941422C817D9070CF3C0E050
:100E8000D0E018C08EE995E00E9414229C01215008
:100E90003109EE24E394F12C8E0140E050E060E053
:100EA00070E08EE995E00E9467188EE995E00E9457
:100EB000E01724968EE995E00E941822C817D907FA
:100EC0000CF36AEF70E080E090E00E94D80A8EE9AF
:100ED00095E00E948A15C0E0D0E018C08EE995E048
:100EE0000E941822AC0141505109EE24E394F12CE8
:100EF00000E010E09E0160E070E08EE995E00E9465
:100F000067188EE995E00E94E01724968EE995E037
:100F10000E941422C817D9070CF38EE995E00E94AD
:100F20001822EC0121971EC08EE995E00E94142240
:100F30008C018EE995E00E94182298012150310918
:100F4000AC0141505109EE24E394F12C8E0160E094
:100F500070E08EE995E00E9467188EE995E00E94A6
:100F6000E0172497D7FFE0CF6AEF70E080E090E0D1
:100F70000E94D80A8EE995E00E948A158EE995E0D4
:100F80000E941422EC0121971CC00E9418228C019F
:100F90008EE995E00E941422A80141505109BC013C
:100FA00061507109EE24E394F12C00E010E09E0101
:100FB0008EE995E00E9467188EE995E00E94E0179F
:100FC00024978EE995E0D7FFE0CF0E941822EC012C
:100FD00021971EC08EE995E00E9418228C018EE9AF
:100FE00095E00E941422A80141505109BC016150B2
:100FF0007109EE24E394F12C8E0120E030E08EE9BB
:1010000095E00E9467188EE995E00E94E01724970A
:10101000D7FFE0CF6AEF70E080E090E00E94D80A4E
:101020008EE995E00E948A15C0E0D0E018C08EE9F4
:1010300095E00E941422BC0161507109EE24E394F2
:10104000F12C8E0120E030E040E050E08EE995E0A8
:101050000E9467188EE995E00E94E01724968EE9B9
:1010600095E00E941822C817D9070CF3C0E0D0E021
:101070001DC08EE995E00E9418228C018EE995E052
:101080000E94142201501109BC0161507109EE2423
:10109000E394F12C9E0140E050E08EE995E00E943F
:1010A00067188EE995E00E94E01724968EE995E096
:1010B0000E941422C817D907E4F26AEF70E080E0BA
:1010C00090E0DF91CF911F910F91FF90EF900C94E2
:1010D000D80A62E08EE995E00E94FF2161E070E0AD
:1010E0008EE995E00E94052240E050E06AE070E061
:1010F0008EE995E00E94F9218EE995E00E948A151B
:101100006DE175E08EE995E00E941E0D8EE995E097
:101110000E94E0174FE060E08EE995E00E94A31680
:1011200060ED77E080E090E00E94D80A8EE995E0DB
:101130000E94FD1568EE73E080E090E00E94D80AFE
:101140004FE060E08EE995E00E94721660ED77E076
:1011500080E090E00E94D80A8EE995E00E94FD159B
:1011600068EE73E080E090E00E94D80A47E060E01B
:101170008EE995E00E94391660ED77E080E090E01E
:101180000E94D80A47E060E08EE995E00E940016D0
:1011900060ED77E080E090E00E94D80A8EE995E06B
:1011A0000C94FD1540E855E260E070E08FEE95E0AC
:1011B0000E94FA0F4CE362E08EE995E00E94DB1694
:1011C0008EE995E00E94E01760ED77E080E090E026
:1011D0000E94D80A8EE995E00E948A1521E030E04D
:1011E0004AE050E06AE070E08EE995E00E94C614A3
:1011F0008EE995E00E94E01760ED77E080E090E0F6
:101200000E94D80A8EE995E00E948A150E9417076D
:101210008EE995E00E94E01760ED77E080E090E0D5
:101220000E94D80A8EE995E00E948A150E94D40691
:101230008EE995E00E94E01760ED77E080E090E0B5
:101240000E94D80A8EE995E00E948A150E949B04AC
:101250008EE995E00E94E01760ED77E080E090E095
:101260000E94D80A8EE995E00E948A150E946504C2
:101270008EE995E00E94E01760ED77E080E090E075
:101280000E94D80A8EE995E00E948A158EE995E0C1
:101290000E941822D82FC92F8EE995E00E941422AF
:1012A0004D2F5C2F57FF02C04F5F5F4F55954795FD
:1012B000BC0197FF02C06F5F7F4F7595679501E096
:1012C00010E02AE030E08EE995E00E940F1D8EE9E3
:1012D00095E00E94E01760ED77E080E090E00E94EA
:1012E000D80A8EE995E00E948A150E941C0660EDDE
:1012F00077E080E090E00E94D80A8EE995E00E94B5
:101300008A150E94740660ED77E080E090E00E940C
:10131000D80A8EE995E00E948A150E94E40460EDE7
:1013200077E080E090E00E94D80A8EE995E00E9484
:101330008A150E94820560ED77E080E090E00E94CF
:10134000D80A8EE995E00E948A150E9432048EE93F
:1013500095E00E94E01760ED77E080E090E00E9469
:10136000D80A8EE995E00E948A150E94690860ED0E
:1013700077E080E090E00E94D80A8EE995E00E9434
:101380008A1561E08EE995E00E94FF2161E070E03E
:101390008EE995E00E94052240E050E060E070E0B8
:1013A0008EE995E00E94F92164E275E08EE995E00E
:1013B0000E941E0D41E050E060E070E08EE995E093
:1013C0000E940B2222E030E048ED5FE069E470E427
:1013D0008EE995E00E94110F62E08EE995E00E948F
:1013E000FF2161E070E08EE995E00E94052262E352
:1013F00075E08EE995E00E94FF0C20E130E04FEEB1
:101400005EEB6DEA7EED8EE995E00E949B0D8EE924
:1014100095E00E94E01760ED77E080E090E00E94A8
:10142000D80A8EE995E00E948A15CC24C394D12C69
:10143000A0E1EA2EF12C00E110E028E630E040E1E6
:1014400050E06EE170E08EE995E00E9430208EE978
:1014500095E00E94E01761E08EE995E00E94D416C5
:1014600068EE73E080E090E00E94D80A60E08EE9C8
:1014700095E00E94D41668EE73E080E090E00E9450
:10148000D80A40E160E188E690E00E9423030895D5
:10149000EF920F930DE0E02E0CE02BE04AE069E0C4
:1014A0008EE995E00E9460150F91EF9008950E94DB
:1014B000000B0E94D208C1ECDFE00E94470A20978F
:1014C000E1F30E94C10FF9CF1F920F920FB60F9256
:1014D00011242F933F938F939F93AF93BF9380914A
:1014E000CD059091CE05A091CF05B091D00530915A
:1014F000D505232F2D5F2D3720F40196A11DB11D99
:1015000005C0232F2A570296A11DB11D2093D50592
:101510008093CD059093CE05A093CF05B093D005D1
:101520008091D1059091D205A091D305B091D405B9
:101530000196A11DB11D8093D1059093D205A09372
:10154000D305B093D405BF91AF919F918F913F91F7
:101550002F910F900FBE0F901F9018950F931F9310
:101560009FB7F8940091D1051091D2052091D30531
:101570003091D40586B5A89B06C08F3F21F00F5F40
:101580001F4F2F4F3F4F9FBF322F212F102F00276C
:10159000080F111D211D311D42E0000F111F221FD8
:1015A000331F4A95D1F7B801C9011F910F910895D2
:1015B000CF92DF92EF92FF92CF93DF936B017C018A
:1015C0000E94AE0AEB0110C00E943B0B0E94AE0AC3
:1015D0006C1B7D0B683E734038F081E0C81AD1085F
:1015E000E108F108C851DC4FC114D104E104F10451
:1015F00059F7DF91CF91FF90EF90DF90CF90089552
:10160000789484B5826084BD84B5816084BD85B5DD
:10161000826085BD85B5816085BDEEE6F0E08081A4
:1016200081608083E1E8F0E01082808182608083C5
:10163000808181608083E0E8F0E080818160808348
:10164000E1EBF0E0808184608083E0EBF0E080817A
:1016500081608083EAE7F0E080818460808380811C
:1016600082608083808181608083808180688083C4
:101670001092C10008950895833069F028F48130F4
:10168000A1F0823011F514C08630B1F08730C1F07E
:101690008430D9F404C0809180008F7703C080919A
:1016A00080008F7D80938000089584B58F7702C07D
:1016B00084B58F7D84BD08958091B0008F7703C07D
:1016C0008091B0008F7D8093B0000895CF93DF9319
:1016D00090E0FC01E456FF4F4491FC01E055FF4FC0
:1016E0008491882341F190E0880F991FFC01E85212
:1016F000FF4F25913491D90182539F4FFC01859171
:101700009491C82FD92F9FB7F8948C91611106C07E
:10171000409584238C938881842308C0623041F4EF
:10172000242F209582238C938881842B888302C068
:10173000842B8C939FBFDF91CF9108950F931F93BC
:10174000CF93DF931F92CDB7DEB7282F30E0F9019A
:10175000E857FF4F8491F901E456FF4F1491F901C6
:10176000E055FF4F04910023D1F0882321F06983D5
:101770000E943C0B6981E02FF0E0EE0FFF1FE25367
:10178000FF4F85919491DC019FB7F8948C91611182
:1017900003C01095812301C0812B8C939FBF0F90B4
:1017A000DF91CF911F910F910895813039F018F09A
:1017B0008230D1F409C010926E00089580916F00BC
:1017C0008D7F80936F000895809170008D7F80934E
:1017D000700081E08093B0008091B100887F8460C8
:1017E0008093B1001092B3000895CF93C82F8091D9
:1017F00001018C1307C0E2EEF0E084919FEF90931B
:10180000010101C08FEF0E94D50B60E08C2FCF91BA
:101810000C949E0B1F920F920FB60F9211242F93D0
:101820003F934F935F936F937F938F939F93AF9368
:10183000BF93EF93FF938091D9059091DA05A09122
:10184000DB05B091DC05892B8A2B8B2B51F1909114
:10185000D605E091D705F091D8058081892780834E
:101860008091D9059091DA05A091DB05B091DC0556
:10187000181619061A061B06C4F48091D905909112
:10188000DA05A091DB05B091DC050197A109B1094A
:101890008093D9059093DA05A093DB05B093DC051E
:1018A00004C0809101010E94F50BFF91EF91BF915F
:1018B000AF919F918F917F916F915F914F913F91E8
:1018C0002F910F900FBE0F901F9018951F920F929F
:1018D0000FB60F9211242F933F934F935F936F9303
:1018E0007F938F939F93AF93BF93EF93FF938091D9
:1018F000EB059091EC05892B29F0E091EB05F09137
:10190000EC050995FF91EF91BF91AF919F918F9158
:101910007F916F915F914F913F912F910F900FBEEB
:101920000F901F9018951F920F920FB60F921124CF
:101930002F933F934F935F936F937F938F939F93D7
:10194000AF93BF93EF93FF938091ED059091EE05D8
:10195000892B29F0E091ED05F091EE050995FF91B5
:10196000EF91BF91AF919F918F917F916F915F9117
:101970004F913F912F910F900FBE0F901F90189590
:101980000895CF92DF92EF92FF920F931F93CF9320
:10199000DF936C01EB017A01E60EF71E00E010E028
:1019A0000BC06991D601ED91FC910190F081E02D81
:1019B000C6010995080F191FCE15DF0591F7C8015B
:1019C000DF91CF911F910F91FF90EF90DF90CF901B
:1019D00008956115710581F0DB010D900020E9F794
:1019E000AD0141505109461B570BDC01ED91FC91B3
:1019F0000280F381E02D099480E090E008950C943A
:101A0000E90CDC01ED91FC910190F081E02D09944D
:101A10000F931F93CF93DF93EC016DE00E94010DB4
:101A20008C016AE0CE010E94010D9C01200F311F44
:101A3000C901DF91CF911F910F9108950F931F93CB
:101A4000CF93DF93EC010E94E90C8C01CE010E9440
:101A5000080D9801280F391FC901DF91CF911F91FF
:101A60000F9108954F925F926F927F929F92AF92E3
:101A7000BF92CF92DF92EF92FF920F931F93CF937B
:101A8000DF93CDB7DEB7A1970FB6F894DEBF0FBED8
:101A9000CDBF5C016A017B01922E19A281E0821701
:101AA00010F08AE0982E8E010F5D1F4F492C512CAB
:101AB000612C712CC701B601A30192010E9466241A
:101AC0008C2D929E80191124015011098A3014F432
:101AD000805D01C0895CF801808369017A01C114CD
:101AE000D104E104F10431F7B801C5010E94E90C09
:101AF000A1960FB6F894DEBF0FBECDBFDF91CF9198
:101B00001F910F91FF90EF90DF90CF90BF90AF901B
:101B10009F907F906F905F904F90089521153105B1
:101B200041F4DC01ED91FC910190F081E02D642FF6
:101B300009940C94320D0F931F93CF93DF93EC0114
:101B40000E948E0D8C01CE010E94080D9C01200F79
:101B5000311FC901DF91CF911F910F9108959A0113
:101B6000462F50E060E070E00C948E0D0F931F93B1
:101B7000CF93DF93EC019A01462F50E060E070E0D4
:101B80000E948E0D8C01CE010E94080D9801280F35
:101B9000391FC901DF91CF911F910F910895CF9205
:101BA000DF92EF92FF920F931F93CF93DF93EC019D
:101BB0006A017B012115310579F4E881F9810190F1
:101BC000F081E02D642FDF91CF911F910F91FF9055
:101BD000EF90DF90CF9009942A30310519F477FD0A
:101BE0000EC02AE0B701A601CE01DF91CF911F916F
:101BF0000F91FF90EF90DF90CF900C94320D6DE23B
:101C00000E94010D8C0144275527BA014C195D092A
:101C10006E097F092AE0CE010E94320D080F191FBC
:101C2000C801DF91CF911F910F91FF90EF90DF904E
:101C3000CF9008957F928F929F92AF92BF92CF9252
:101C4000DF92EF92FF920F931F93CF93DF93EC01FC
:101C50006A017B01122F9A01AB01C701B6010E94F4
:101C60003724882319F065E375E032C04601570137
:101C7000E894B7F82FEF3FEF4FE75FE7C501B401F6
:101C80000E94372481110DC02FEF3FEF4FE75FE730
:101C9000C501B4010E94812218161CF469E375E0A5
:101CA00017C02FEF3FEF4FE75FE4C701B6010E9477
:101CB000D02318160CF40AC02FEF3FEF4FE75FEC6C
:101CC000C701B6010E94812287FF12C06DE375E053
:101CD000CE01DF91CF911F910F91FF90EF90DF9098
:101CE000CF90BF90AF909F908F907F900C94E90C15
:101CF00020E030E0A901C701B6010E94812287FFE0
:101D00000AC06DE2CE010E94010D5C01F7FAF09469
:101D1000F7F8F09402C0A12CB12C00E060E070E074
:101D200080E09FE307C020E030E040E251E40E9401
:101D300085220F5F0113F7CF262F372F482F592FFA
:101D4000C701B6010E941D22762E872E982EC92E1D
:101D50000E94F222D62EE72EF82E092F0E941E2373
:101D60009B01AC01672D782D892D9C2D0E941C2292
:101D7000C62E972E882E792E2AE04D2D5E2D6F2DA2
:101D8000702FCE010E94320D7C01EA0CFB1C112346
:101D9000B9F161E475E0CE010E94E90CE80EF91E8C
:101DA0002FC020E030E040E251E46C2D792D882DE9
:101DB000972D0E94D423762E072F6C019D2D0E9413
:101DC000ED224B01AA2497FCA094BA2C2AE030E023
:101DD000B501A401CE010E94CF0DE80EF91EC50188
:101DE000B4010E9420239B01AC01672D702F8C2D24
:101DF0009D2D0E941C22C62E972E882E792E1150C2
:101E00001111CFCFC701DF91CF911F910F91FF909B
:101E1000EF90DF90CF90BF90AF909F908F907F908A
:101E200008950F931F93CF93DF93EC010E941A0E36
:101E30008C01CE010E94080D9801280F391FC9019D
:101E4000DF91CF911F910F910895FC01268D878D11
:101E500030E0205C3F4F281B31092F733327C90125
:101E60000895FC01968D878D981731F0878DE80FC6
:101E7000F11D22A130E002C02FEF3FEFC90108950C
:101E8000FC01968D878D981761F0878DDF01A80F73
:101E9000B11D92962C91878D8F5F8F73878F30E065
:101EA00002C02FEF3FEFC9010895FC01858D882303
:101EB00029F0A089B1898C9186FFFBCF158E0895FA
:101EC000FC0180A190E001968F73992721A130E059
:101ED00082179307D9F390A1DF01A90FB11DAE5965
:101EE000BF4F6C9380A3A289B3892C9181E090E0CD
:101EF000038C02C0880F991F0A94E2F7282B2C93B9
:101F000081E0858F0088F189E02D80818064808365
:101F100081E090E0089508951F920F920FB60F92FE
:101F200011242F933F934F938F939F93EF93FF939E
:101F30008091C00082FD17C04091C60080910D06BF
:101F400090E001968F73992720910E0630E082175A
:101F5000930759F0E0910D06F0E0E151FA4F42A3EA
:101F600080930D0602C08091C600FF91EF919F9172
:101F70008F914F913F912F910F900FBE0F901F9017
:101F800018958FEE95E00E94250F892B11F00C9487
:101F90008B0F08951F920F920FB60F9211242F935B
:101FA0008F939F93EF93FF9390910F06809110066C
:101FB000981306C08091C1008F7D8093C10010C02E
:101FC000E0911006F0E0EF5AF94F20818091100661
:101FD00090E001968F739927809310062093C60096
:101FE000FF91EF919F918F912F910F900FBE0F90C6
:101FF0001F901895CF92DF92EF92FF92CF93DF93CD
:10200000EC016A017B01411581EE580761057105FC
:10201000F9F0E889F98981E090E00C8C02C0880F22
:10202000991F0A94E2F7808360E079E08DE390E005
:10203000A70196010E9466242150310941095109E6
:102040005695479537952795211580E1380798F0E3
:10205000E889F989108260E874E88EE190E0A701D0
:1020600096010E9466242150310941095109569573
:10207000479537952795EC85FD853083EE85FF855F
:1020800020831D8EEA89FB89408181E090E09C01DC
:10209000088C02C0220F331F0A94E2F7422B4083C0
:1020A000EA89FB8940819C01098C02C0220F331F01
:1020B0000A94E2F7422B4083EA89FB8940819C0124
:1020C0000A8C02C0220F331F0A94E2F7422B40838E
:1020D000EA89FB8920810B8C02C0880F991F0A9422
:1020E000E2F7809582238083DF91CF91FF90EF907C
:1020F000DF90CF9008951092F2051092F10588EECE
:1021000093E0A0E0B0E08093F3059093F405A093F2
:10211000F505B093F60587E495E09093F00580937C
:10212000EF051092100610920F0610920E061092F4
:102130000D0685EC90E09093FC058093FB0584EC04
:1021400090E09093FE058093FD0580EC90E09093E5
:1021500000068093FF0581EC90E090930206809347
:10216000010682EC90E0909304068093030686ECCF
:1021700090E0909306068093050684E0809307061E
:1021800083E08093080687E08093090685E08093CA
:102190000A0681E080930B060895AF92BF92CF921A
:1021A000DF92EF92FF920F931F93CF93DF936C0117
:1021B0007B01C0E0D0E000E010E0F601EC0FFD1F75
:1021C0004AE050E06281C7010E94AF0D5C016EE2FF
:1021D000C7010E94010D8A0D9B1D080F191F219632
:1021E000C330D10551F74AE050E0F6016581C701DF
:1021F0000E94AF0D080F191FC801DF91CF911F91E9
:102200000F91FF90EF90DF90CF90BF90AF90089527
:1022100027E535E0FC01318320831282138214828A
:10222000158208950F93FC0187E595E091838083E3
:1022300062834383248305830F91089587E595E0A6
:1022400090939206809391061092930610929406B2
:10225000109295061092960608951092A00681E0BD
:1022600080939E0610929D0661E082E10E949E0B83
:1022700061E083E10E949E0BE9EBF0E080818E7FBC
:10228000808380818D7F808388E48093B80085E49B
:102290008093BC0008950F93413208F046C090919E
:1022A000A0069111FCCF92E09093A00600939E06A9
:1022B0009FEF9093970610929C0640939B06FB011C
:1022C00061EA76E0DB0102C091919D939A2F961B03
:1022D0009417D0F310929F0690919F06880F892B38
:1022E00080939F0680919D06813041F410929D0657
:1022F00080919F068093BB0085EC01C085EE8093A2
:10230000BC00222321F08091A0068230E1F380916D
:1023100097068F3F61F080919706803251F080914F
:102320009706803341F483E007C081E005C080E078
:1023300003C082E001C084E00F910895613298F4F7
:102340002091A006243089F460939906FC0181EC69
:1023500096E0DC0102C021912D932A2F281B26171D
:10236000D0F380E0089581E0089582E0089585ED3E
:102370008093BC008091BC0084FDFCCF1092A0062D
:10238000089585EC8093BC001092A00608951F92DA
:102390000F920FB60F9211242F933F934F935F9399
:1023A0006F937F938F939F93AF93BF93EF93FF931D
:1023B0008091B900887F803609F49FC058F5883233
:1023C00009F45BC090F4803109F452C038F48823DA
:1023D00009F4F8C0883009F0F9C04AC0883109F41E
:1023E0004CC0803209F0F2C05CC0803409F46BC08C
:1023F00038F4803309F455C0883309F0E7C054C07D
:10240000803509F454C0883509F462C0883409F075
:10241000DDC0DAC0883909F4CBC0A8F4883709F4E4
:102420006CC038F4883609F468C0803709F0CEC033
:1024300064C0883809F4BCC0803909F464C08038AD
:1024400009F0C4C060C0803B09F48AC038F4803A07
:1024500009F46BC0883A09F0B9C082C0803C09F425
:10246000ABC0883C09F4A8C0883B09F0AFC08DC060
:1024700080919F068093BB0012C090919C06809132
:102480009B06981788F580919C06E82FF0E0EF55A1
:10249000F94F90819093BB008F5F80939C0685ECF1
:1024A00088C08093970690C08093970656C080910D
:1024B0009C069091BB00E82FF0E0EF55F94F908318
:1024C0008F5F80939C0690919C0680919B066DC0C7
:1024D00080919C069091BB00E82FF0E0EF55F94FFA
:1024E00090838F5F80939C0680919E0681116CC0C3
:1024F00081E080939D0684EA60C083E08093A0061B
:1025000010929806CCCF80919806803208F050C087
:10251000809198069091BB00E82FF0E0EB51F94FC5
:1025200090838F5F80939806BACF8091980680320F
:1025300030F4E0919806F0E0EB51F94F10820E94E0
:10254000B71160919806E091E106F091E20670E023
:1025500085EE96E00995109298060E94C11136C04A
:1025600084E08093A00610929A0610929906E0915A
:10257000E306F091E406099580919906811105C062
:1025800081E0809399061092C10680919A06E82F07
:10259000F0E0EF53F94F90819093BB008F5F8093F1
:1025A0009A0690919A0680919906981708F477CF29
:1025B00085E88093BC000AC085EC8093BC00109233
:1025C000A00604C0109297060E94B711FF91EF91E8
:1025D000BF91AF919F918F917F916F915F914F913B
:1025E0003F912F910F900FBE0F901F901895209143
:1025F000390730E080913A07281B3109C901089555
:1026000080913A0790913907891750F4E82FF0E04C
:10261000E55CF84F208130E08F5F80933A0702C07D
:102620002FEF3FEFC9010895E0913A0780913907F4
:10263000E81730F4F0E0E55CF84F208130E002C0AC
:102640002FEF3FEFC90108950895CF92DF92EF92E7
:10265000FF920F931F93CF93DF937C01CB018A01ED
:1026600020911507222391F0EB016B01C40ED51EBA
:1026700009C06991D701ED91FC910190F081E02DA5
:10268000C7010995CC15DD05A1F703C0642F0E9491
:102690009E11C801DF91CF911F910F91FF90EF9094
:1026A000DF90CF900895CF93DF931F92CDB7DEB721
:1026B0006983209115072223D1F02091160720323B
:1026C00040F021E030E0FC013383228320E030E061
:1026D00015C080911707E82FF0E0E85EF84F998168
:1026E00090838F5F809317078093160705C061E082
:1026F000CE0101960E949E1121E030E0C9010F90A9
:10270000DF91CF910895FC011382128248EE53E0CD
:1027100060E070E044835583668377838DE595E0C0
:1027200091838083089510923A071092390710928E
:102730001707109216070C942D1181E0809315074E
:1027400060933807109217071092160708950C949B
:102750009D130F93062F21E04091160768E177E063
:10276000809138070E944B1110921707109216079C
:10277000109215070F91089561E00C94A91385E05C
:1027800097E00C9483130F9300E020E040E060E0BA
:1027900089ED97E00E9412118BE597E00F910C9460
:1027A00008110F9300E020E040E060E08FED97E03B
:1027B0000E9412110F9108950F9300E020E040E075
:1027C00060E085EE97E00E9412110F9108950F933B
:1027D00000E020E040E060E08BEE97E00E94121104
:1027E0000F9108950F9300E020E040E060E081EF5A
:1027F00097E00E9412110F9108950F9300E020E0DE
:1028000040E060E087EF97E00E9412110F91089579
:102810001F920F920FB60F9211242F933F934F9355
:102820005F936F937F938F939F93AF93BF93EF9338
:10283000FF938091FE0787FF05C0109285001092DC
:1028400084001AC02091FE07332727FD3095809120
:10285000FD0790E0281739077CF48091FE0799273F
:1028600087FD9095FC01EE0FFF1FE80FF91FE15067
:10287000F84F808186FD37C08091FE078F5F80937F
:10288000FE072091FE07332727FD30958091FD0735
:1028900090E028173907CCF58091FE078C30F4F1D1
:1028A00034C08091FE07992787FD9095FC01EE0FBB
:1028B000FF1FE80FF91FE150F84F808161E08F732F
:1028C0000E949E0B52C080E49CE905C08091840068
:1028D00090918500049690938900809388008FEFF3
:1028E0008093FE0742C08091FE07992787FD90954F
:1028F000FC01EE0FFF1FE80FF91FE150F84F808138
:1029000060E08F730E949E0BB7CF809184009091FE
:102910008500049680349C49B0F2D8CF2091840081
:10292000309185008091FE07992787FD9095FC01E5
:10293000EE0FFF1FE80FF91FE150F84F81819281E0
:10294000820F931F90938900809388008091FE07E7
:10295000992787FD9095FC01EE0FFF1FE80FF91FE7
:10296000E150F84F808186FD9CCFFF91EF91BF91A0
:10297000AF919F918F917F916F915F914F913F9117
:102980002F910F900FBE0F901F901895CF92DF924E
:10299000EF92FF920F931F93CF93DF937C018B01F4
:1029A000EA01690177FD83C00E9414220817190704
:1029B0000CF07DC0D7FD7BC0C7010E941822C8174C
:1029C000D9070CF074C066C0F701848195818C1B17
:1029D0009D0BE8018C010150110919C0F701848198
:1029E00095819C01201B310B8901015011098681C1
:1029F0009781FC01EC1BFD0BEF01219708C0F7014B
:102A000086819781801B910B8E01EC012197CA94DE
:102A1000CD28F9F4FE01D7FD379623E0F595E7952B
:102A20002A95E1F7F695FE2FEE27F795E795E00F4B
:102A3000F11FEC5FFE4FCE0168E070E00E9452246F
:102A400021E030E001C0220F8A95EAF78081822BD5
:102A50001FC0FE01D7FD379683E0F595E7958A956F
:102A6000E1F7F695FE2FEE27F795E795E00FF11FBA
:102A7000EC5FFE4FCE0168E070E00E94522421E03E
:102A800030E001C0220F8A95EAF7209580818223E9
:102A900080830DC0C7010E941122823009F49ECFAD
:102AA000833009F4ACCF813009F0B1CF8DCFDF9105
:102AB000CF911F910F91FF90EF90DF90CF900895ED
:102AC000CF92DF92EF92FF920F931F93CF93DF93FA
:102AD0001F92CDB7DEB76C01162FF42E40E450E004
:102AE00060E870E029830E94011A8DE695E0F60106
:102AF00091838083E2A201A3298120A3F78E168F00
:102B00000F90DF91CF911F910F91FF90EF90DF9089
:102B1000CF90089580E094E0E4E0F1E0DF019C01D3
:102B20001D9221503040E1F70895FC0188E090E0CB
:102B300030E8A5A1B6A14C9124A5209524232C937F
:102B4000432F4623A3A1B4A123A5442321F04C91F4
:102B5000422B4C9304C04C91209524232C93A5A187
:102B6000B6A12C9144A5242B2C933695019709F7F7
:102B700008951F93CF93DF93EC01162F8E8D8F3F17
:102B8000F1F0EFA1F8A580819DA5892B8083E9A5AF
:102B9000FAA590818EA5809589238083EFA1F8A561
:102BA00090818DA5809589238083CE010E94951503
:102BB000EFA1F8A580819DA5892B80831AC08D8DFA
:102BC000682F772767FD709585E097E00E94A7132F
:102BD00060E085E097E00E945313612F85E097E065
:102BE0000E94531385E097E0DF91CF911F910C94E1
:102BF000BC13DF91CF911F9108956EE20C94B9152B
:102C0000EF92FF921F93CF93DF931F92CDB7DEB762
:102C10007C01162F63EA49830E94B91560E0C70161
:102C20000E94B91560E4C7010E94B9156AE2C701A4
:102C30000E94B91560E0C7010E94B915612FC70154
:102C40000E94B91560E0C7010E94B9154981642F3F
:102C5000C7010E94B91561E0C7010E94B9156FE272
:102C6000C7010F90DF91CF911F91FF90EF900C94CF
:102C7000B915EF92FF921F93CF93DF931F92CDB7B9
:102C8000DEB77C01162F63EA49830E94B91560E024
:102C9000C7010E94B91560E4C7010E94B91569E235
:102CA000C7010E94B91560E0C7010E94B915612FE4
:102CB000C7010E94B91560E0C7010E94B91549819A
:102CC000642FC7010E94B91561E0C7010E94B915C0
:102CD0006FE2C7010F90DF91CF911F91FF90EF90AE
:102CE0000C94B915EF92FF921F93CF93DF931F922D
:102CF000CDB7DEB77C01162F67E249830E94B91574
:102D000060E0C7010E94B915612FC7010E94B91583
:102D100060E0C7010E94B9154981642FC7010E9474
:102D2000B91561E0C7010E94B9156FEFC7010E9494
:102D3000B9156FE2C7010F90DF91CF911F91FF90FE
:102D4000EF900C94B915EF92FF921F93CF93DF93FE
:102D50001F92CDB7DEB77C01162F66E249830E9431
:102D6000B91560E0C7010E94B915612FC7010E9423
:102D7000B91560E0C7010E94B9154981642FC701E8
:102D80000E94B91561E0C7010E94B9156FEFC70134
:102D90000E94B9156FE2C7010F90DF91CF911F918B
:102DA000FF90EF900C94B915662311F067EA01C00B
:102DB00066EA0C94B9151F93CF93DF93EC01162F9D
:102DC0004D8F8E8D8F3F09F468C061E00E94660BC5
:102DD00061E08F8D0E94660B61E088A10E94660B06
:102DE00061E08AA10E94660B8F8D992787FD9095DF
:102DF000FC01E055FF4FE491F0E0EE0FFF1FE253BE
:102E0000FF4F259134912DA33EA3FC01E456FF4FC3
:102E100084918CA78E8D992787FD9095FC01E055B4
:102E2000FF4FE491F0E0EE0FFF1FE253FF4F2591BB
:102E300034912BA33CA3FC01E456FF4F84918BA754
:102E40008AA1992787FD9095FC01E055FF4FE491F9
:102E5000F0E0EE0FFF1FE253FF4F259134912FA3B7
:102E600038A7FC01E456FF4F84918DA788A19927CC
:102E700087FD9095FC01E055FF4FE491F0E0EE0FE7
:102E8000FF1FE253FF4F2591349129A73AA7FC0178
:102E9000E456FF4F84918EA704C085E097E00E941E
:102EA000931361E089A10E94660B61E089A10E94F1
:102EB0009E0B61E070E080E090E00E94D80A60E044
:102EC00089A10E949E0B6AE070E080E090E00E9481
:102ED000D80A61E089A10E949E0B6EEACE010E9491
:102EE000B91565EDCE010E94B91560E8CE010E94CA
:102EF000B91568EACE010E94B9156FE3CE010E94B0
:102F0000B91563EDCE010E94B91560E0CE010E94B3
:102F1000B91560E4CE010E94B9156DE8CE010E949A
:102F2000B915113011F460E101C064E1CE010E94D5
:102F3000B91560E2CE010E94B91560E0CE010E9491
:102F4000B91561EACE010E94B91568ECCE010E9464
:102F5000B9156AEDCE010E94B91562E1CE010E9459
:102F6000B91561E8CE010E94B915113011F46FE96D
:102F700001C06FECCE010E94B91569EDCE010E942F
:102F8000B915113011F462E201C061EFCE010E9467
:102F9000B9156BEDCE010E94B91560E4CE010E9417
:102FA000B91564EACE010E94B91566EACE010E9405
:102FB000B9156FEACE01DF91CF911F910C94B9152D
:102FC000DF92EF92FF920F931F93CF93DF93EC0169
:102FD00061E20E94B91560E0CE010E94B9156FE769
:102FE000CE010E94B91562E2CE010E94B91560E0DF
:102FF000CE010E94B91567E0CE010E94B9158E8DF1
:103000008F3F31F1EFA1F8A580819DA5892B8083A9
:10301000E9A5FAA580819EA5892B8083EFA1F8A55B
:1030200090818DA580958923808304E011E0F801CB
:1030300061918F01CE010E949515F5E004301F07C4
:10304000B1F7EFA1F8A580819DA5892B808337C0BA
:10305000D090B8008CE08093B80004E011E06D8D52
:10306000772767FD709585E097E00E94A713E091B0
:103070000507F09106070190F081E02D60E485E0FE
:1030800097E00995E12CF12CF801EE0DFF1D608110
:1030900085E097E00E9453138FEFE81AF80AE0E109
:1030A000EE16F10489F785E097E00E94BC13005FFB
:1030B0001F4FF5E004301F0791F6D092B800DF9162
:1030C000CF911F910F91FF90EF90DF9008952F9275
:1030D0003F924F925F926F927F928F929F92AF92A8
:1030E000BF92CF92DF92EF92FF920F931F93CF93F5
:1030F000DF9300D000D0CDB7DEB74C017C836B836B
:103100006A015901C8018701AC014C195D0957FFDB
:1031100003C051954195510995016B817C81261B16
:10312000370B37FF03C031952195310922242394B1
:10313000312C2417350714F0212C312C21143104A3
:1031400059F03A2D2B2D5C01832F922F3B812C813E
:10315000DC82CB82C32ED22EAB81BC81AA16BB06E9
:103160005CF43C2D2D2D6C01832F922F3B812C8103
:10317000BC82AB82A32EB22E2501EB81FC814E1ABC
:103180005F0A3C016C187D0877FE03C0719461945E
:103190007108720157FE03C0FFEFEF1AFF0AF594A2
:1031A000E794C816D9062CF421E030E03A8329834D
:1031B00028C06FEF7FEF7A83698323C0D401ED913C
:1031C000FC910480F581E02D98012114310421F057
:1031D0004B815C81B60103C0A6016B817C81C40177
:1031E0000995E618F708F7FE06C0E981FA81CE0EC8
:1031F000DF1EE40CF51C2B813C812F5F3F4F3C838D
:103200002B836B817C81A616B706C4F60F900F90B6
:103210000F900F90DF91CF911F910F91FF90EF9042
:10322000DF90CF90BF90AF909F908F907F906F90E6
:103230005F904F903F902F9008956F927F928F9262
:103240009F92AF92BF92CF92DF92EF92FF920F9335
:103250001F93CF93DF93EC015B016A0139014801B1
:10326000E881F9810284F385E02D87010995E881E1
:10327000F981A601480D591D415051090284F38579
:10328000E02D9301B501CE010995E881F981008413
:10329000F185E02D9401A601B501CE010995E881E3
:1032A000F981B501660D771D615071090084F185C2
:1032B000E02D9401A601CE010995DF91CF911F91D8
:1032C0000F91FF90EF90DF90CF90BF90AF909F90C5
:1032D0008F907F906F900895EF92FF920F931F93BE
:1032E000DC01ED91FC91240F351F2150310906803E
:1032F000F781E02D780189019B0109951F910F91BC
:10330000FF90EF900895EF92FF920F931F93DC01CF
:10331000ED91FC91260F371F215031090680F7816E
:10332000E02D78018A0109951F910F91FF90EF9090
:1033300008956F927F928F929F92AF92BF92CF9299
:10334000DF92EF92FF920F931F93CF93DF935C0175
:103350004A0169013801EB01C60ED71E0DC0D50127
:10336000ED91FC910084F185E02D87019301A4018A
:10337000BE01C50109952196CC15DD0584F3DF91C9
:10338000CF911F910F91FF90EF90DF90CF90BF9062
:10339000AF909F908F907F906F900895EF92FF92E3
:1033A0000F931F93DC01ED91FC9111971A960D91EB
:1033B0001C911B9718962D913C9119970684F785BF
:1033C000E02D7B0140E050E060E070E009951F9146
:1033D0000F91FF90EF90089508954C7F88E0489FEB
:1033E000A001112430E073E0359527957A95E1F737
:1033F000422B532B962F987F80E0482B592BCA01E4
:103400000895FC011382128287E895E091838083FE
:1034100075836483578346837187608753874287A8
:10342000158A158614861786168621E0248B8FEF61
:103430009FEF938B828B918B808B268B08952F929D
:103440003F924F925F926F927F928F929F92AF9234
:10345000BF92CF92DF92EF92FF920F931F93CF9381
:10346000DF9300D000D000D0CDB7DEB79E838D8330
:103470007B016A01590188248394912C821A930A52
:1034800044245524421A530A440C551CDC01ED9186
:10349000FC91420F531F0480F581E02D980109959E
:1034A000AD81BE81ED91FC911197A6014A195B098E
:1034B0000480F581E02D9801B701CD010995AD811A
:1034C000BE81ED91FC911197B7016A0D7B1D0480BF
:1034D000F581E02D9801A601CD010995AD81BE8150
:1034E000ED91FC911197B7016A197B090480F58170
:1034F000E02D9801A601CD0109953501A12CB12C33
:10350000A2C097FC08C0B1E06B1A7108E2E04E0E51
:10351000511C840C951CFFEFAF1ABF0AC501880F20
:10352000991F0196880E991E1601260C371CC5019D
:103530008E0D9F1D9A838983AD81BE81ED91FC9193
:1035400011970480F581E02D9801A101BC01CD0106
:103550000995F701EA19FB09FC83EB83AD81BE8174
:10356000ED91FC9111970480F581E02D9801A10166
:103570006B817C81CD010995160126183708AD8134
:10358000BE81ED91FC9111970480F581E02D9801A9
:10359000A10169817A81CD010995AD81BE81ED914D
:1035A000FC9111970480F581E02D9801A1016B81B8
:1035B0007C81CD01099515012C0C3D1CF701E60D10
:1035C000F71DFA83E983AD81BE81ED91FC911197DE
:1035D0000480F581E02D9801A10169817A81CD01F6
:1035E0000995F701E619F709FC83EB83AD81BE81EC
:1035F000ED91FC9111970480F581E02D9801A101D6
:103600006B817C81CD01099516012A183B08AD819B
:10361000BE81ED91FC9111970480F581E02D980118
:10362000A10169817A81CD010995AD81BE81ED91BC
:10363000FC9111970480F581E02D9801A1016B8127
:103640007C81CD010995A614B7040CF45ACF2696B7
:103650000FB6F894DEBF0FBECDBFDF91CF911F91A3
:103660000F91FF90EF90DF90CF90BF90AF909F9021
:103670008F907F906F905F904F903F902F90089524
:103680002F923F924F925F926F927F928F929F9272
:10369000AF92BF92CF92DF92EF92FF920F931F9360
:1036A000CF93DF9300D000D000D0CDB7DEB79E839C
:1036B0008D834B013A01802F44244394512C421AAC
:1036C000530A22243324221A330A220C331C6901A0
:1036D000AA24A394B12C01E010E0982F9470998350
:1036E000A82FA270AA83B82FB870BB8381708C8377
:1036F000A5C057FC08C0E1E0CE1AD108F2E02F0EB9
:10370000311C420C531C0E5F1F4F400E511E89810D
:10371000882311F1AD81BE81ED91FC911197A30138
:103720004C0D5D1DB501680D791D0480F581E02DFE
:103730009701CD010995AD81BE81ED91FC91119765
:10374000A501460D571DB4016C0D7D1D0480F5814A
:10375000E02D9701CD010995BA81BB2311F1AD810F
:10376000BE81ED91FC911197A3014C195D09B50142
:10377000680D791D0480F581E02D9701CD01099533
:10378000AD81BE81ED91FC911197A3014A195B09AE
:10379000B4016C0D7D1D0480F581E02D9701CD01F4
:1037A0000995BB81BB2311F1AD81BE81ED91FC91E7
:1037B0001197A501460D571DB4016C197D090480B0
:1037C000F581E02D9701CD010995AD81BE81ED9187
:1037D000FC911197A3014C0D5D1DB4016A197B0981
:1037E0000480F581E02D9701CD010995BC81BB23B3
:1037F00011F1AD81BE81ED91FC911197A3014A19A0
:103800005B09B4016C197D090480F581E02D9701F5
:10381000CD010995AD81BE81ED91FC911197A30178
:103820004C195D09B4016A197B090480F581E02D0A
:103830009701CD010995BFEFAB1ABB0AC5010197EE
:103840008C159D050CF455CF26960FB6F894DEBF67
:103850000FBECDBFDF91CF911F910F91FF90EF90E1
:10386000DF90CF90BF90AF909F908F907F906F90A0
:103870005F904F903F902F9008952F923F924F92DC
:103880005F926F927F928F929F92AF92BF92CF92F0
:10389000DF92EF92FF920F931F93CF93DF93CDB7F9
:1038A000DEB728970FB6F894DEBF0FBECDBF5C0120
:1038B0001B015A834983FC82EB8288248394912CD8
:1038C000821A930A44245524421A530A440C551C64
:1038D00038872F83E12CF12C66246394712C802F80
:1038E00081708D8302700E837BC097FC0AC0AF810C
:1038F000B8851197B887AF83B2E04B0E511C840C8A
:10390000951CEFEFEE1AFE0AF2E06F0E711C860CAA
:10391000971C8D81882381F1D501ED91FC912F8138
:103920003885220F331F2F5F3F4F8B819C81280FDB
:10393000391F49815A81AF81B8854A1B5B0BB7019A
:10394000620D731D0084F185E02D8601C501099586
:10395000D501ED91FC912B813C81260D371D4981CC
:103960005A814E195F096F817885620D731D00843D
:10397000F185E02DC5010995BE81BB2389F1D501F3
:10398000ED91FC912F813885220F331F2F5F3F4F20
:103990008B819C81280F391F49815A81AF81B8855D
:1039A0004A1B5B0BB1016E197F090084F185E02D84
:1039B0008601C5010995D501ED91FC912B813C81D2
:1039C000260D371D49815A814E195F09B1018F813A
:1039D0009885681B790B0084F185E02DC501099558
:1039E000AF81B885EA16FB060CF47FCF28960FB698
:1039F000F894DEBF0FBECDBFDF91CF911F910F9125
:103A0000FF90EF90DF90CF90BF90AF909F908F90FE
:103A10007F906F905F904F903F902F9008956F929E
:103A20007F928F929F92AF92BF92CF92DF92EF924E
:103A3000FF920F931F93CF93DF93EC014B013A0159
:103A400059016801E881F981220F331F2F5F3F4F31
:103A50004A195B090084F185E02DB4010995E12C38
:103A6000F12C03E09501A301B401CE010E943D1C9D
:103A7000DF91CF911F910F91FF90EF90DF90CF904A
:103A8000BF90AF909F908F907F906F9008952F92EE
:103A90003F924F925F926F927F928F929F92AF92DE
:103AA000BF92CF92DF92EF92FF920F931F93CF932B
:103AB000DF93CDB7DEB728970FB6F894DEBF0FBE01
:103AC000CDBF98878F833B014A013C832B831E83A4
:103AD0000D835701EE24FF24EA18FB08EE0CFF1CAF
:103AE000C9018E0D9F1D9A8389832B014A0C5B1C93
:103AF000AF81B885ED91FC9111970284F385E02D9B
:103B000086019C01B201CD0109952D803E80280CD3
:103B1000391CAF81B885ED91FC911197A1014150FD
:103B200051090284F385E02D29813A81B201CD014A
:103B30000995ED81FE81EE0EFF1E8A0C9B1CAF8164
:103B4000B885ED91FC9111970084F185E02D9701E6
:103B5000A401B301CD010995EB81FC816E0E7F1E9E
:103B6000AF81B885ED91FC911197B3016150710956
:103B70000084F185E02D9701A401CD01099576011E
:103B800001E09501A401B2018F8198850E94401B3C
:103B90006A187B08B1E06B1A710802E09501A40174
:103BA000B3018F8198850E94401B41018A189B08B0
:103BB000E1E08E1A910804E09501A401B3018F8120
:103BC00098850E94401B08E09501A401B2018F81F5
:103BD00098850E94401B28960FB6F894DEBF0FBE52
:103BE000CDBFDF91CF911F910F91FF90EF90DF90AC
:103BF000CF90BF90AF909F908F907F906F905F908D
:103C00004F903F902F9008952F923F924F925F9246
:103C10006F927F928F929F92AF92BF92CF92DF92DC
:103C2000EF92FF920F931F93CF93DF9300D000D0BA
:103C300000D0CDB7DEB75C017A8369833A013C835B
:103C40002B834801FE82ED8226016701D194C19445
:103C5000D108CC0CDD1C1B012E0C3F1CD501ED91B5
:103C6000FC912C0D3D1D0684F785E02D7201B101FC
:103C7000C50109958C0C9D1CB1E08B1A9108ED8152
:103C8000FE816E0E7F1E69817A818B819C81680F17
:103C9000791F6E1B7F0B615071096201740101E095
:103CA0009F01A301C5010E943D1C02E02D813E81C0
:103CB000A301B101C5010E943D1C26960FB6F894E0
:103CC000DEBF0FBECDBFDF91CF911F910F91FF904F
:103CD000EF90DF90CF90BF90AF909F908F907F90AC
:103CE0006F905F904F903F902F9008952F923F924A
:103CF0004F925F926F927F928F929F92AF92BF92FC
:103D0000CF92DF92EF92FF920F931F93CF93DF93A7
:103D100000D000D0CDB7DEB79C838B831B012A0176
:103D200049013801FA82E982DC01ED91FC910680BB
:103D3000F781E02D75010995AB81BC81ED91FC9176
:103D400011970680F781E02D860129813A81A30130
:103D5000B401CD010995AB81BC81ED91FC91119726
:103D60000680F781E02D82019101A60169817A81A7
:103D7000CD0109950F900F900F900F90DF91CF918B
:103D80001F910F91FF90EF90DF90CF90BF90AF9079
:103D90009F908F907F906F905F904F903F902F906B
:103DA00008952F923F924F925F926F927F928F92DF
:103DB0009F92AF92BF92CF92DF92EF92FF920F93BA
:103DC0001F93CF93DF93CDB7DEB766970FB6F89406
:103DD000DEBF0FBECDBF1C014B013A0129011C8B78
:103DE0000B8B0417150744F4872D38014B8B8C8BF4
:103DF000892D4901462E582E2B893C89C216D3069F
:103E00005CF49B898C89DC8ACB8AC92ED82E942DB0
:103E1000852D2701E92EF82E4B895C89461557051B
:103E200054F4962D872D3A019B8B8C8B982D892DE0
:103E30004201492E582E6C147D0439F5481459045A
:103E400034F08414950434F09401B40105C0940155
:103E5000B20102C09201B401E616F70624F02E1555
:103E60003F051CF003C0B70101C09701D101ED91DE
:103E7000FC91261B370B2F5F3F4F0284F385E02D0B
:103E80008501A301C1010995D2C0F201E819F90920
:103E9000FE87ED872B893C8926193709388B2F87B8
:103EA000A701481959095E834D83C60186199709F0
:103EB0009A878987D701A419B509BC87AB87F60112
:103EC0002B893C89E21BF30BFA8BE98B2C153D0502
:103ED00029F02150310938872F8304C04B895C8930
:103EE00058874F8373011C821B821A8219823FC03C
:103EF00089819A816F8578890E945224FB01E80D9F
:103F0000F91D8B819C8169857A850E945224680DF8
:103F1000791D89819A81AD85BE858A0F9B1F9A8301
:103F200089832B813C814D815E81240F351F3C8329
:103F30002B836E177F072CF49E2F8F2FFB01692F89
:103F4000782FD1018D919C919B012E1B3F0B2F5FF0
:103F50003F4FDC011A960D90BC91A02D8501A70161
:103F6000BF01C101FD010995FFEFEF1AFF0A2F8183
:103F700038852E153F050CF0BBCFC7014B895C89F6
:103F8000841B950BEB85FC85E89FD001E99FB00D64
:103F9000F89FB00D1124BA83A983C7018619970928
:103FA0002D813E81289F3001299F700C389F700C15
:103FB00011243AC089819A8169897A890E945224A0
:103FC000FB01E40DF51DC30169857A850E94522429
:103FD000680D791D49815A818B859C85480F591F31
:103FE0005A834983AD81BE816A0E7B1E6E177F079F
:103FF0002CF49E2F8F2FFB01692F782FD1018D91EB
:104000009C919B012E1B3F0B2F5F3F4FDC011A96AB
:104010000D90BC91A02D8501A701BF01C101FD013B
:104020000995FFEFEF1AFF0ACE14DF041CF666961F
:104030000FB6F894DEBF0FBECDBFDF91CF911F91B9
:104040000F91FF90EF90DF90CF90BF90AF909F9037
:104050008F907F906F905F904F903F902F9008953A
:104060002F923F924F925F926F927F928F929F9288
:10407000AF92BF92CF92DF92EF92FF920F931F9376
:10408000CF93DF93CDB7DEB728970FB6F894DEBF96
:104090000FBECDBF5C011B012A013901FC82EB82FE
:1040A000C801079697FF02C0C8010E969C01B3E0B5
:1040B00035952795BA95E1F73A832983812C912C80
:1040C000E12CF12C47C0EF81F885F7FD3796A3E08E
:1040D000F595E795AA95E1F7E80DF91DE60DF71DB1
:1040E000E491F0E08F81988587709927A0E8B0E08F
:1040F00002C0B595A7958A95E2F7EA23FB23EF2B3B
:1041000079F0D501ED91FC916F817885620D731D79
:104110000480F581E02D96014D815E81C5010995F0
:10412000EF81F8853196F887EF8307C018861F82E4
:104130009701240D351D3E832D838F81988580172F
:1041400091070CF4C0CF9FEFE91AF90AA981BA814F
:104150008A0E9B1EEB81FC81EE16FF063CF328962F
:104160000FB6F894DEBF0FBECDBFDF91CF911F9188
:104170000F91FF90EF90DF90CF90BF90AF909F9006
:104180008F907F906F905F904F903F902F90089509
:104190002F923F924F925F926F927F928F929F9257
:1041A000AF92BF92CF92DF92EF92FF920F931F9345
:1041B000CF93DF93CDB7DEB72E970FB6F894DEBF5F
:1041C0000FBECDBF9E878D873A011E830D83F88673
:1041D000EF82DC0118968D919C91199768177907E9
:1041E0000CF09AC0FD0182859385481759070CF0A1
:1041F00093C0CB01F6E0CF9E800D911D11241816BF
:1042000019060CF089C08C2D90E09A878987CA0125
:10421000A8E0CA9E800D911D1124181619060CF0F5
:104220007BC05B017A8369831B8213EE812E10E0D1
:10423000912E861A970AB5E02B9F800C911C1124B1
:10424000EB81E53029F0F401EA0DFB1DD49001C0AB
:10425000D12CF981FB872A812C871301230138E0B7
:104260003C83D0FE13C0AD85BE85ED91FC91B1E0DD
:10427000CB1206C00480F581E02D2D813E8119C04E
:104280000684F785E02DED80FE801EC0EF81F88565
:104290002D813E81E217F30709F1AD85BE85ED91D1
:1042A000FC91B1E0CB120BC00480F581E02D2F8191
:1042B0003885A201B5018D859E8509950FC00684BC
:1042C000F785E02DEF80F8840C2D10E02C2D30E0E8
:1042D000A1016B857C858D859E850995D694EC81A1
:1042E000E150EC8329853A85220E331E3FEF431AB5
:1042F000530AE111B6CF8B818F5F8B83A981BA817D
:10430000E985FA85AE0FBF1FBA83A983FFEFAF1A05
:10431000BF0A863009F094CF2E960FB6F894DEBF10
:104320000FBECDBFDF91CF911F910F91FF90EF9006
:10433000DF90CF90BF90AF909F908F907F906F90C5
:104340005F904F903F902F900895CF92EF92FF9201
:104350000F931F93CF93DF93EC01262F6A3049F41C
:104360002C898E859F8538E0239F800D911D112417
:1043700032C06D30A1F1EA88FB88088919894E8521
:104380005F856C857D85CC880E94C8202C89422F52
:1043900050E08C859D8536E0239F800D911D112472
:1043A0009D878C872E892223D1F06AEF64039001C8
:1043B000659F300D112468857985260F371F2817D2
:1043C00039076CF403E0440F551F0A95E1F78E8519
:1043D0009F85840F951F9F878E871D861C8681E091
:1043E00090E0DF91CF911F910F91FF90EF90CF90D0
:1043F0000895FC0175876487578746870895611182
:1044000001C061E0FC01648B0895FC01718B608B3D
:10441000738B628B0895FC01718B608B538B428B85
:104420000895FC0185890895FC0180859185089592
:10443000FC018285938508955058BB27AA270ED08A
:1044400075C166D130F06BD120F031F49F3F11F48B
:104450001EF45BC10EF4E095E7FB51C1E92F77D163
:1044600080F3BA17620773078407950718F071F491
:104470009EF58FC10EF4E0950B2EBA2FA02D0B01E7
:10448000B90190010C01CA01A0011124FF27591B99
:1044900099F0593F50F4503E68F11A16F040A22F9F
:1044A000232F342F4427585FF3CF46953795279510
:1044B000A795F0405395C9F77EF41F16BA0B620B0F
:1044C000730B840BBAF09150A1F0FF0FBB1F661F56
:1044D000771F881FC2F70EC0BA0F621F731F841F99
:1044E00048F4879577956795B795F7959E3F08F0BF
:1044F000B3CF9395880F08F09927EE0F979587957E
:104500000895D9D008F481E008950CD00FC107D1E7
:1045100040F0FED030F021F45F3F19F0F0C05111AF
:1045200039C1F3C014D198F39923C9F35523B1F3DA
:10453000951B550BBB27AA2762177307840738F012
:104540009F5F5F4F220F331F441FAA1FA9F333D071
:104550000E2E3AF0E0E830D091505040E695001C25
:10456000CAF729D0FE2F27D0660F771F881FBB1FE1
:10457000261737074807AB07B0E809F0BB0B802DBB
:10458000BF01FF2793585F4F2AF09E3F510568F007
:10459000B6C000C15F3FECF3983EDCF3869577959B
:1045A0006795B795F7959F5FC9F7880F911D969509
:1045B000879597F90895E1E0660F771F881FBB1F65
:1045C000621773078407BA0720F0621B730B840B12
:1045D000BA0BEE1F88F7E095089504D06894B111E6
:1045E000D9C00895BCD088F09F5790F0B92F992773
:1045F000B751A0F0D1F0660F771F881F991F1AF0EE
:10460000BA95C9F712C0B13081F0C3D0B1E00895B6
:10461000C0C0672F782F8827B85F39F0B93FCCF337
:10462000869577956795B395D9F73EF490958095E3
:10463000709561957F4F8F4F9F4F0895E89409C003
:1046400097FB3EF490958095709561957F4F8F4FC5
:104650009F4F9923A9F0F92F96E9BB279395F695DB
:10466000879577956795B795F111F8CFFAF4BB0F59
:1046700011F460FF1BC06F5F7F4F8F4F9F4F16C0BD
:10468000882311F096E911C0772321F09EE8872F47
:10469000762F05C0662371F096E8862F70E060E003
:1046A0002AF09A95660F771F881FDAF7880F96957C
:1046B000879597F90895990F0008550FAA0BE0E820
:1046C000FEEF16161706E807F907C0F012161306D4
:1046D000E407F50798F0621B730B840B950B39F414
:1046E0000A2661F0232B242B252B21F408950A267A
:1046F00009F4A140A6958FEF811D811D089597F9BA
:104700009F6780E870E060E008959FEF80EC089577
:1047100000240A94161617061806090608950024A0
:104720000A9412161306140605060895092E03941A
:10473000000C11F4882352F0BB0F40F4BF2B11F48E
:1047400060FF04C06F5F7F4F8F4F9F4F089557FDED
:104750009058440F551F59F05F3F71F04795880FEF
:1047600097FB991F61F09F3F79F087950895121686
:1047700013061406551FF2CF4695F1DF08C0161632
:1047800017061806991FF1CF8695710561050894E3
:104790000895E894BB2766277727CB0197F90895FA
:1047A0008ADF08F48FEF08950BD0C0CFB1DF28F077
:1047B000B6DF18F0952309F0A2CFA7CF1124EACFD6
:1047C000C6DFA0F3959FD1F3950F50E0551F629F70
:1047D000F001729FBB27F00DB11D639FAA27F00D5A
:1047E000B11DAA1F649F6627B00DA11D661F829F81
:1047F0002227B00DA11D621F739FB00DA11D621F66
:10480000839FA00D611D221F749F3327A00D611D82
:10481000231F849F600D211D822F762F6A2F112464
:104820009F5750408AF0E1F088234AF0EE0FFF1FB7
:10483000BB1F661F771F881F91505040A9F79E3FEE
:10484000510570F05CCFA6CF5F3FECF3983EDCF3F0
:10485000869577956795B795F795E7959F5FC1F72B
:10486000FE2B880F911D9695879597F9089523DF64
:10487000880B990B08950E94A424A59F900DB49FC6
:10488000900DA49F800D911D11240895991B79E02E
:1048900004C0991F961708F0961B881F7A95C9F7D0
:1048A0008095089597FB072E16F4009407D077FDA6
:1048B00009D00E94B02407FC05D03EF49095819564
:1048C0009F4F0895709561957F4F0895A1E21A2E2C
:1048D000AA1BBB1BFD010DC0AA1FBB1FEE1FFF1FA4
:1048E000A217B307E407F50720F0A21BB30BE40BF4
:1048F000F50B661F771F881F991F1A9469F760953B
:104900007095809590959B01AC01BD01CF010895F4
:10491000052E97FB16F4009407D057FD0DD00E948A
:10492000662407FC09D07EF490958095709561957A
:104930007F4F8F4F9F4F089550954095309521950B
:104940003F4F4F4F5F4F0895A29FB001B39FC001EB
:10495000A39F01D0B29F700D811D1124911D089558
:10496000AA1BBB1B51E107C0AA1FBB1FA617B70795
:1049700010F0A61BB70B881F991F5A95A9F78095B1
:104980009095BC01CD010895EE0FFF1F0590F491A5
:10499000E02D09948F929F92AF92BF92CF92DF92B7
:1049A000EF92FF92CF93DF93EC01688179818A8146
:1049B0009B81611571058105910521F464E279ED12
:1049C0008BE597E02DE133EF41E050E00E94882431
:1049D00049015A019B01AC01A7EAB1E40E943B24C2
:1049E0006B017C01ACEEB4EFA50194010E942B2574
:1049F000C60ED71EE81EF91EF7FE06C081E0C81AD3
:104A0000D108E10880E8F80AC882D982EA82FB82EC
:104A1000E894F7F8B601C701DF91CF91FF90EF90CE
:104A2000DF90CF90BF90AF909F908F9008950E949D
:104A3000CA2408958AE095E00E94CA2408956093EC
:104A40000A0570930B0580930C0590930D0508954E
:104A5000B7FF0C943B240E943B24821B930B0895C8
:044A6000F894FFCFF8
:104A640001FF00040000000000000000000000003E
:104A74000000000000000000000000000000000032
:104A84000000000000000000000000000000000022
:104A94000000000000000000000000000000000012
:104AA4000000008080800000000000000000000082
:104AB40000000000008080C0C00000000000000072
:104AC40000000000000000000000000000000000E2
:104AD40000000000000000000000000000000000D2
:104AE40000000000000000000000000000000000C2
:104AF400000000000000000080C0E0F0F8FCF8E0D6
:104B040000000000000000000000000000000000A1
:104B14000080808080800080800000000080808091
:104B2400808000FFFFFF0000000080808080000084
:104B34008080000080FFFF80800080800080808073
:104B4400800080800000000000808000008C8E8443
:104B5400000080F8F8F88000000000000000000069
:104B640000000000F0F0F0F0F0F0F0F0F0F0F0F001
:104B7400E0E0C08000E0FCFEFFFFFF7FFFFFFFFFDF
:104B8400FF0000000000000000000000000000FE24
:104B9400FFC70101010183FFFF00007CFEC7010183
:104BA400010183FFFFFF0038FEC78301010183C7B2
:104BB400FFFF000001FFFF010100FFFF07010101EA
:104BC40000007FFF80000000FFFF7F0000FFFFFF69
:104BD400000001FFFFFF01000000000000000000D2
:104BE40000000000030F3F7F7FFFFFFFFFFFFFFF79
:104BF400E7C7C78F8F9FBFFFFFC3C0F0FFFFFFFF53
:104C0400FFFCFCFCFCFCFCFCFCF8F8F0F0E0C00051
:104C14000103030303030103030000000001030372
:104C24000303010103010000000103030303010165
:104C3400030300000003030000000303000000005E
:104C4400000000010303030303010000000103014A
:104C54000000000303010000000000000000000049
:104C64000000000000000080C0E0F0F9FFFFFFFF3B
:104C7400FF3F1F0F87C7F7FFFF1F1F3DFCF8F8F822
:104C8400F87C7DFFFFFFFFFFFFFFFF7F3F0F070063
:104C940030300000000000000000000000000000B0
:104CA4000000000000000000FEFEFC000000000008
:104CB40000000000000000000000000000000000F0
:104CC40000E0C000000000000000000000003030E0
:104CD40000000000000000000000000000000000D0
:104CE4000000000000C0FEFFFFFFFFFFFFFFFFFF0B
:104CF4007F7F3F1F0F071F7FFFFFF8F8FFFFFFFFB6
:104D0400FFFEF8E0000000010000000000000000C9
:104D1400FEFE000000FCFEFC0C06060EFCF8000083
:104D2400F0F81C0E0606060CFFFFFF0000FEFE0056
:104D3400000000FCFEFC00183C7E66E6CE84000009
:104D440006FFFF0606FCFEFC0C0606060000FEFE3F
:104D54000000C0F8FC4E4646464E7C7840183C762F
:104D6400E6CECC800000000000000000000000003F
:104D7400000000000000000001070F1F1F3F3F3F1D
:104D84003F1F0F03000000000000000000000000AF
:104D94000F0F0000000F0F0F000000000F0F0000A6
:104DA40003070E0C18180C060F0F0F0000010F0E4E
:104DB4000C180C0F070100040E0C180C0F07000050
:104DC400000F0F00000F0F0F0000000000000F0F76
:104DD40000000007070C0C181C0C060600040E0C3F
:104DE400180C0F0700000000000000000000000085
:104DF40000000000000000000000000000000000AF
:104E0400000000000000000000000000000000009E
:104E1400000000000000000000000000000000008E
:104E2400000000000000000000000000000000007E
:104E3400000000000000000000000000000000006E
:104E4400000000000000000000000000000000005E
:104E5400000000000000000000000000000000004E
:104E64000000000000002308200001000000783A40
:104E7400200020793A20002064793A20007363727C
:104E84006F6C6C0048656C6C6F2C20776F726C646F
:104E940021003078006E616E00696E66006F766680
:104EA400002E0000000000600FC10C250F400F31E0
:104EB4000F550F00000000CD100000000053132513
:104EC40013F71200131413241300000000A521C1CA
:104ED4000CC61467186C1983191D199919CE19D4A5
:104EE40016ED1900000000A521C10CC00C67186C58
:0E4EF4001983191D199919CE19EC19ED190021
:00000001FF
