:1000000033C000004CC000004AC0000048C00000DF
:1000100046C0000044C0000042C0000040C00000D4
:100020003EC0000098C400003AC0000038C0000084
:1000300036C0000052C3000032C0000030C00000D3
:100040002EC000002CC000002AC0000028C0000004
:1000500026C0000024C0000022C0000020C0000014
:100060001EC000001CC0000011241FBECFEFD8E04E
:10007000DEBFCDBF11E0A0E0B1E0E6E6FBE002C0EC
:1000800005900D92AC33B107D9F721E0ACE3B1E0B4
:1000900001C01D92A935B207E1F75DD062C5B0CFAE
:1000A000DC011296ED91FC91139716968C9190813C
:1000B0006F3F11F4982703C0662319F0982B9083A3
:1000C00008958095892380830895A7E0B0E0EAE64B
:1000D000F0E011C529E230E03A8329832BE230E0D9
:1000E0003C832B832AE230E03E832D8390E89F837C
:1000F000682FCE010196D4DFED81FE8180819F8142
:10010000892B80832796E2E012C5A7E0B0E0EAE8F9
:10011000F0E0F1C429E230E03A8329832BE230E0B9
:100120003C832B832AE230E03E832D8392E09F8341
:10013000682FCE010196B4DFED81FE8180819F8121
:10014000892B80832796E2E0F2C4809100018F5FC3
:100150008093000108958BE291E0F3D382E391E074
:1001600017D380E0D2DF81E0B0DF84E690E03AD4BC
:1001700081E0CBDF80E0A9DF84E690E033D4F1CFEB
:1001800090914101E0913D01F0913E01992311F0E0
:10019000849101C08081282F21542A3110F4805E7F
:1001A0000895803271F420913D0130913E01A90102
:1001B0004F5F5F4F50933E0140933D012115310544
:1001C00009F70895EF92FF92CF93DF93D9DFC0E054
:1001D000D0E01AC09E01220F331F93E0CC0FDD1F29
:1001E0009A95E1F7C20FD31F992787FD9095C80F05
:1001F000D91FE09780913D0190913E010196909327
:100200003E0180933D01BCDF982F90539A3010F34C
:10021000CE01DF91CF91FF90EF90089510926F0083
:1002200083E28093800081E18093810010928200BC
:1002300080E197E2909389008093880010928B0070
:1002400010928A00229A7894089580913C01882324
:1002500021F481E080933C01E1CF0895A0E0B0E07B
:10026000E3E3F1E03EC48C015B01E42EEEDF10928B
:10027000010117FF04C01F77AAE0FA2E02C0FF2475
:10028000F394C0908100DD2428EFC222DD2488ECA5
:100290003F2D389FC001112480179107D0F4E80149
:1002A00067E20131160710F0C0E1D7E2BE01769592
:1002B000679580E090E06058794687469F4F9E01A1
:1002C00040E050E0C0D3890181E090E0C82AD92AFB
:1002D0002BC098E2F99E902D112480E0892EE40134
:1002E0004E01982EE4018016910608F4E801BE0143
:1002F000769567959E0140E050E08F2D8A3039F465
:1003000080E090E0605E734481449F4F06C080E0CF
:1003100090E060537D4E8C4E9F4F95D3890152E003
:10032000852E912CC828D9282F2D2A3031F4CE01C2
:1003300005966AE070E073D3EB0133E0C83ED30763
:1003400069F0BE0180E090E0950140E050E04CD3C0
:1003500028EE33E040E050E098D301C095011092C0
:100360006F00C09281001093890000938800409133
:100370008800509189006E2D603108F06FE080E1B7
:1003800090E0861B9109BA0102C0769567958A951F
:10039000E2F770938B0060938A00309344012093BE
:1003A000430186B38FEF86BB81E080936F00CDB7AA
:1003B000DEB7ECE0B2C39B018F3F11F0442329F478
:1003C00088EE93E0B90140E047C0813130F0582F0A
:1003D0005051503618F05FE501C050E0852F6CE0B9
:1003E00012D3A82FB0E0E4EFFFEFAE9FB001AF9FB4
:1003F000700DBE9F700D1124650F711D6C3071055D
:1004000040F4FB01EE0FFF1FE55FFE4F608171813D
:1004100002C060E070E0873081F0082E02C0660FF5
:10042000771F0A94E2F7823028F0CB0105966AE044
:1004300070E00CC0605070480AC0CB01B6E0880F75
:10044000991FBA95E1F7029665E070E0E8D2403175
:1004500008F04FE0CB01B90101CFA0E0B0E0E2E34A
:10046000F2E03EC3B090020180913F01882359F031
:1004700060914001662339F08FEF70E040E09BDF30
:100480001092400126C1C0ECDDE5AA24A39414E03B
:10049000712E00ED17E0B4E0EB2EF12CA4EFCA2E84
:1004A000A1E0DA2EFFE08F2E912C6ADE20913D0133
:1004B00030913E012F5F3F4F30933E0120933D012D
:1004C0008636F1F18736CCF4823609F4A8C083363B
:1004D0007CF48E3349F18F333CF4813209F480C0CF
:1004E0008C3309F094C022C0813609F090C094C0CA
:1004F000843601F185360CF51BC08F3609F445C0F2
:10050000803744F48C3611F18D3659F1873609F075
:100510007EC019C0843709F441C0863709F45AC037
:10052000823709F074C036C0B394BFCFBA94BDCF40
:10053000EE2432C0EE2482E074C0EE2484E071C068
:10054000EE2485E06EC0EE2487E06BC03BDEBC018C
:10055000909304018093030180910501909106011D
:1005600033C00EDE8C3619F410923F0104C0A09205
:100570003F011092400180913D0190913E01019612
:1005800090933E0180933D0190CF1CDEB82E809366
:1005900002018BCFEE24E39480E043C013DEBC0164
:1005A000CE013DD2CB01880F991F53E0660F771F14
:1005B0005A95E1F7860F971F9093060180930501E6
:1005C00060910301709104012AD270930801609335
:1005D00007016BCFF7DD90930A018093090165CF86
:1005E000709202011093060100930501F09204013C
:1005F000E0920301D0920801C092070190920A0193
:100600008092090110923F0144E0B42E4ECF109227
:100610003E0110923D015DC0EE2489E002C0EE244F
:100620008BE09CE0B99EB02C1124B80EA9DD8B3272
:1006300011F08332B1F480913D0190913E01019619
:1006400090933E0180933D01B394F0CF80913D01A2
:1006500090913E01019690933E0180933D01BA94A2
:100660008FDD8D3299F3C0910701D091080181533C
:10067000883048F4C0910501D0910601A3DDBC018A
:10068000CE01CDD1EB018E010BC080913D01909147
:100690003E01019690933E0180933D01C00FD11F12
:1006A000169507956DDD8E3281F380913F01882389
:1006B00039F0CE019695879580934001C81BD109EA
:1006C000EE2011F0BB24BA948B2DBE01409109019C
:1006D00072DECDB7DEB7EDE01FC21F920F920FB6EC
:1006E0000F9211242F933F934F935F936F937F93B8
:1006F0008F939F93AF93BF93EF93FF9380914301A9
:10070000909144019C01215030403093440120934A
:100710004301009709F510926F0078948091810051
:10072000887F81608093810080E197E290938900C7
:100730008093880010928B0010928A0081E0809351
:10074000010180913D0190913E01009729F0809137
:100750004201882309F481DEFF91EF91BF91AF91AF
:100760009F918F917F916F915F914F913F912F91C9
:100770000F900FBE0F901F90189510926F009093DE
:100780003E0180933D01109241011092400165CEDF
:10079000F4CF089581E090E06F9364E06A95F1F7FB
:1007A0006F910197C9F708950F931F93CF93DF932C
:1007B0001AB157985A98289AC0E0D0E0EBDF5C9ABB
:1007C000E9DF09B15C98E6DF5C9AE4DF5C9807FF3B
:1007D00011C024969E0140E050E080914901909123
:1007E0004A01A0914B01B0914C01281739074A07E3
:1007F0005B0720F31AB9DF91CF911F910F910895F4
:1008000065B190E0AC0141705070440F551F9C01E0
:100810002670307053E0220F331F5A95E1F7242BD6
:100820006D7C262B25B92BB18870907034E0880F31
:10083000991F3A95E1F72F77282B2BB95C9AAADFFD
:100840005C98A8CFA2E0B0E0E7E2F4E04FC1182F37
:100850004A8369835AD0A8DFF4B005B1DAB0EBB0AF
:10086000289869814A81662311F05A9A01C05A98E2
:1008700084B1826384B9579A413021F0812F8295E7
:100880008F70BEDF812F8F70BBDFDAB8EBB8F4B8A2
:1008900005B92296E7E046C160E042E0D3CF61E0CF
:1008A00042E0D0CF60E041E0CDCF80E197E2A0E030
:1008B000B0E08093490190934A01A0934B01B0931B
:1008C0004C01529A209A549A8EE190E08BD083E0AA
:1008D000E9DF86E090E086D083E0E4DF82E090E02C
:1008E00081D083E0DFDF82E090E07CD082E0DADF5D
:1008F00082E090E077D088E2CFDF88E0CDDF81E052
:10090000CBDF86E0C9DF8CE0C7CF80914D01882323
:1009100021F481E080934D01C8CF0895EF92FF92BA
:10092000CF93DF93E82EE7017E01F92EE70101C0A6
:10093000B6DF89918823E1F7DF91CF91FF90EF90A7
:100940000895ECCF08956F9364E06A95F1F76F9185
:100950000197C9F708952F928F939F932FB6809197
:100960004F0190915001019680934F019093500157
:1009700090E080915101891F80935101909157011E
:100980009C5F909357018091560180519742C0F02F
:100990009093570180935601809152019091530199
:1009A0000196809352019093530190E080915401FD
:1009B000891F8093540180915501891F80935501AF
:1009C0002FBE9F918F912F901895CF93DF93EC01BD
:1009D00004C088EE93E0B7DF21972097D1F7DF912D
:1009E000CF910895F2CF0895DB018F939F9369D043
:1009F000BF91AF91A29F800D911DA39F900DB29FBB
:100A0000900D11240895991B79E004C0991F961741
:100A100008F0961B881F7A95C9F780950895AA1B40
:100A2000BB1B51E107C0AA1FBB1FA617B70710F0D9
:100A3000A61BB70B881F991F5A95A9F7809590950B
:100A4000BC01CD010895A1E21A2EAA1BBB1BFD011A
:100A50000DC0AA1FBB1FEE1FFF1FA217B307E4079D
:100A6000F50720F0A21BB30BE40BF50B661F771FF5
:100A7000881F991F1A9469F76095709580959095D5
:100A80009B01AC01BD01CF010895052E97FB16F423
:100A900000940FD057FD05D0D6DF07FC02D046F4F6
:100AA00008C050954095309521953F4F4F4F5F4F6F
:100AB000089590958095709561957F4F8F4F9F4FCA
:100AC000089540D0A59F900DB49F900DA49F800DD8
:100AD000911D112408952F923F924F925F926F9231
:100AE0007F928F929F92AF92BF92CF92DF92EF92BE
:100AF000FF920F931F93CF93DF93CDB7DEB7CA1B3F
:100B0000DB0B0FB6F894DEBF0FBECDBF09942A8869
:100B1000398848885F846E847D848C849B84AA8411
:100B2000B984C884DF80EE80FD800C811B81AA819E
:100B3000B981CE0FD11D0FB6F894DEBF0FBECDBF69
:100B4000ED010895A29FB001B39FC001A39F700D56
:100B5000811D1124911DB29F700D811D1124911DC5
:060B60000895F894FFCF98
:100B66000101040400D007F4010F009C01B501CF78
:100B760001EA0107022602470269028E02B502DE79
:100B8600020A03020800005901200048656C6C6FD8
:0C0B960021004C3136206365673E63008F
:00000001FF
